:100FC6005072657373203120666F722052414D2036
:100FD6006F72203220666F7220524F4D7E0052652E
:100FE6007475726E696E672E2E2E7E004261756470
:100FF6003A207E004368617261637465723A207EAE
:10100600005472616E736D697474696E672E2E2E4C
:101016007E005072657373202A20746F20656469A0
:101026007420746865206E65787420627974657EB4
:1010360000466F756E643A207E00204E6F7420461F
:101046006F756E64217E004C6F6164696E67203037
:101056007841412E2E2E7E00426164204D656D6FD3
:1010660072793A20253034587E004C6F6164696E7F
:101076006720307835352E2E2E7E00456E746572CB
:101086002044656C61792054696D65287553293A49
:101096007E00456E74657220576176656C656E6775
:1010A600746820284B487A293A7E0020204B6576C2
:1010B600696E204A2E20426972647E00285072654D
:1010C600737320616E79204B65792E2E2E297E0052
:1010D6004D656D6F727920697320676F6F64217E2D
:1010E60000312E204C4544207061747465726E7315
:1010F6007E00322E204672656520547970696E67CF
:101106007E00332E204D656D6F7279207465737481
:101116007E00342E20476F20546F20506167652073
:10112600327E00312E204D656D6F72792046756EC8
:1011360063737E00322E204D43552054696D6572CF
:10114600737E00332E2053657269616C7E00312EEA
:101156002044656C6179202874696D65297E0032AA
:101166002E2047656E657261746520576176657ECF
:1011760000312E204F6464205061726974797E00BC
:10118600322E204576656E205061726974797E0034
:10119600332E204E6F205061726974797E00312E95
:1011A600204163636F726469616E7E00322E205344
:1011B6006C696465727E00332E20536869667465B7
:1011C600727E00342E20436F756E7465727E003118
:1011D6002E2044756D707E00322E204D6F76657E12
:1011E60000332E20456469747E00342E2046696ED5
:0311F600647E0014
:10257700100F456E74657220416464726573733A17
:0A2587007E0002080000020B0000B5
:100D8700E4F522F523F524F525F529F528F527F5CA
:100D970026785A7C00FD7BFF7A1079B1FE7F11120D
:100DA70006C3786B7C007D007BFF7A1079C27E00DA
:100DB7007F141206C3C2B012253DE4F590FB7A00FA
:100DC700795A1224641220497B007A00796B122425
:100DD70064E50A700712166E8F0A80F57FC87E00D9
:100DE70080721225B88F0AE50A64317036121E70B8
:100DF700E50A642360611225B88F0AE50AB4310554
:100E07001224C380EBE50AB4320512235E80E1E5C4
:100E17000AB4330512255B80D7E50AB434D212250C
:100E27001880CDE50A6432701F7F011225A6E50AF6
:100E37006423600D1225B88F0A121FDB12249880D5
:100E4700ED7F011225A6800FE50AB4330F1218B6FD
:100E57007F887E1312249C121F688086E50A6434FB
:100E67007080E50A64237003020FC01221CC12259B
:100E7700B88F0AE50A6431706CE50A6423700302CF
:100E87000FB6121EEC1225B88F0AE50A64317030CE
:100E970012259B7BFF7A0F79C61224641225B88F1F
:100EA7000AE50AB43105121D508031E50AB432054E
:100EB700121CBA80277BFF7A0F79E4122464801C06
:100EC700E50AB432051222758012E50AB433051219
:100ED70022238008E50AB434031223137FF47E012A
:100EE70012249C8094E50A64327028E50A64237012
:100EF70003020FB61223E81225B88F0AE50AB431A8
:100F0700051221138008E50AB432031222C61224FF
:100F17009880D8E50A64336003020FB6E50A642AAD
:100F27007003020FB61220B31225B88F0A12259B41
:100F37007BFF7A0F79F21224647F037E001211F986
:100F47008F298E288D278C2612259B7BFF7A0F7978
:100F5700FA1224641225B88F2212259B7BFF7A1080
:100F67007907122464E50AB4311085293085282FC2
:100F770085272E85262D7D018028E50AB432108528
:100F8700293085282F85272E85262D7D028013E57C
:100F97000AB4331585293085282F85272E85262DD8
:100FA7007D037C00AF22121400122498020F237FC6
:0F0FB700E87E0312249C020E69121F68020DE9E6
:02242900AE07FC
:10242B00EE54F0FFEE540FF531EFC4540FFF43079A
:10243B0030433130EFD39439400474072FFFE5312B
:10244B00D39439400674072531F531121FDBAF31B8
:03245B00021FDB82
:101B7200EE54F0FCEE540FF531753200753300EF80
:101B820054F0F534753500EF540FF536ECC4540FAC
:101B9200FD7C00430530E531F532753100433230CA
:101BA200E533C4F854F0C868F533E534C4540F483B
:101BB200F534433430433630D3ED9439EC9400405D
:101BC2000774072DFDE433FCD3E5329439E53194F3
:101BD20000400B74072532F532E43531F531D3E597
:101BE200349439E5339400400B74072534F534E41A
:101BF2003533F533D3E5369439E5359400400B742B
:101C0200072536F536E43535F535AF05121FDBAF5E
:0E1C120032121FDBAF34121FDBAF36021FDBB6
:102049007F0A7E0012249CD3E5099413E508648075
:102059009480500C7FC01225A6750800750940228E
:10206900D3E5099427E50864809480500C7FD41245
:1020790025A675080075095422D3E5099453E50886
:1020890064809480500C7F941225A6750800750908
:102099001422D3E5099467E50864809480500A7F87
:0A20A900801225A6E4F508F50922CF
:101AA200E4F533F534F535F5317532037F1E7E00EA
:101AB20012249C1225B88F35121FDBE534C4F8546A
:101AC2000FC868F534E533C454F048F533E53512F0
:101AD20007EA1B08301B10311B15321B1A331B1F60
:101AE200341B24351B29361B2E371B33381B383940
:101AF2001B3D411B42421B47431B4C441B51451B90
:101B0200564600001B5985333385343480494334AB
:101B1200018044433402803F433403803A43340417
:101B220080354334058030433406802B43340780AC
:101B3200264334088021433409801C43340A801729
:101B420043340B801243340C800D43340D80084320
:101B5200340E800343340FE532153270021531C35F
:0F1B6200E531648094804003021AAEAE33AF3495
:011B71002251
:1019C400E4F52FF530F5311225B88F31121FDBE520
:1019D40031D39439403AE531B4410575313A803018
:1019E400E531B4420575313B8026E531B4430575D4
:1019F400313C801CE531B4440575313D8012E5313C
:101A0400B4450575313E8008E531B4460375313F70
:101A1400E531C454F0F5311225B8752F008F30121A
:101A24001FDBD3E5309439E52F94004058E530644A
:101A340041452F7007F52F75303A8049E5306442EF
:101A4400452F7007F52F75303B803AE530644345E8
:101A54002F7007F52F75303C802BE5306444452FFB
:101A64007007F52F75303D801CE5306445452F70B7
:101A740007F52F75303E800DE5306446452F70051F
:101A8400F52F75303F53300F752F00E5304231AFDD
:0D1A940031121FDB7FF47E0112249CAF3164
:011AA1002222
:1025B800E4FFEF700B7F64FE12249C12166E80F20B
:0125C80022F0
:0411F9008E2E8F2F78
:1011FD00E4F534F533F532F531C3E52F94FFE52EE3
:10120D00940040030213F01225B88F30121FDBE556
:10121D003024D0B40A0040030213CE90123675F07C
:10122D0003A4C58325F0C58373021254021257021D
:10123D00127502129C0212C40212EC021314021354
:10124D003B0213620213880213CEAC2EAD2FE412B3
:10125D0002068F3C8E3B8D3A8C397F007E007D20BF
:10126D007C4112179F0213ADAC2EAD2FE412020676
:10127D008F3C8E3B8D3A8C397F007E007D207C41EA
:10128D0012179FE4FBFAF978401200FB0213ADAC84
:10129D002EAD2FE41202068F3C8E3B8D3A8C397F9A
:1012AD00007E007D207C4112179FE4FBFA79407887
:1012BD00401200FB0213ADAC2EAD2FE41202068FCF
:1012CD003C8E3B8D3A8C397F007E007D207C411217
:1012DD00179FE4FBFA798078401200FB0213ADAC46
:1012ED002EAD2FE41202068F3C8E3B8D3A8C397F4A
:1012FD00007E007D207C4112179FE4FBFA79A078D7
:10130D00401200FB0213ADAC2EAD2FE41202068F7E
:10131D003C8E3B8D3A8C397F007E007D207C4112C6
:10132D00179FE4FBFA79C078401200FB8072AC2E57
:10133D00AD2FE41202068F3C8E3B8D3A8C397F0027
:10134D007E007D207C4112179FE4FBFA79E0784006
:10135D001200FB804BAC2EAD2FE41202068F3C8E9B
:10136D003B8D3A8C397F007E007D207C4112179F8A
:10137D00E4FBFAF978411200FB8025AC2EAD2FE489
:10138D001202068F3C8E3B8D3A8C397F007E007D9C
:10139D00207C4112179FE4FBFA791078411200FB73
:1013AD00C004C005C006C007AF34AE33AD32AC319A
:1013BD00EC120201D003D002D001D00012000A803D
:1013CD000CAF34AE33AD32AC31EC12020112023F30
:1013DD008F348E338D328C31E52F152F7002152EF3
:1013ED000212067FF47E0112249CAF34AE33AD326F
:0213FD00AC3111
:0113FF0022CB
:1025A600C2B1C2B28F90D2B37F0A7E0012249CC2FF
:0225B600B3224E
:06245E007B007A00790FFB
:062464008B3E8A3F894017
:10246A00E4F541F542AB3EAA3FA940854282854147
:10247A0083120702FF647E600D121FDB0542E542EC
:06248A0070E3054180DF54
:012490002229
:101D5000E4F52AF52B12259B12245E121AA28E2A74
:101D60008F2BE4F52CF52D750A2AE50A64236073A0
:101D700012259BC3E52D9410E52C9400504DE52BC6
:101D8000252DF530E52A352CF52FE52D540370155A
:101D9000E52D452C6003122049AF30AE2F121B7287
:101DA0007F3A121FDB853082852F83E0F52E1224C7
:101DB00098853082852F83E0FF1224297F20121F0F
:101DC000DB052DE52D70AC052C80A8E52D252BF528
:101DD0002BE52C352AF52AE4F52CF52D1225B88FA4
:031DE0000A8087EF
:011DE30022DD
:101CBA00E4F52AF52B12259B12245E121AA28E2A0B
:101CCA008F2BE4F52CF52D750A2AE50A6423607535
:101CDA0012259BC3E52D9410E52C9400504FE52B5B
:101CEA00252DF530E52A352CF52FE52D54037015F1
:101CFA00E52D452C6003122049AF30AE2F121B721E
:101D0A007F3A121FDB853082852F83E493F52E12EA
:101D1A002498853082852F83E493FF1224297F201B
:101D2A00121FDB052DE52D70AA052C80A6E52D25B1
:101D3A002BF52BE52C352AF52AE4F52CF52D122561
:051D4A00B88F0A80853E
:011D4F002271
:10227500E4F52AF52BF52CF52DFFFE12259B1224EE
:102285005E121AA28E2A8F2B12204912245E121A70
:10229500A28E2C8F2D12259BE4FEFFE52B2FFDE54D
:1022A5002A3E8D82F583E0FDE52D2FFBE52C3E8B47
:1022B50082F583EDF00FBF00010EEF64104E70DB69
:0122C50022F6
:10222300E4F52AF52B12259B12245E121AA28E2C9A
:102233008F2D12259B750A2AE50A642A7033121919
:10224300C48F2E12259BE52D252BFFE52C352A8FD8
:1022530082F583E52EF0052BE52B7002052A7BFF23
:102263007A1079181224641225B88F0A12259B80DC
:01227300C7A3
:012274002247
:10231300E4F52BF52C12259B1219C48F2AC3E52C47
:1023230094FFE52B94FF5024852C82852B83E0B505
:102333002A107BFF7A107937122464AF2CAE2B025C
:102343001B72052CE52C70D5052B80D1AF2A1224E6
:0A235300297BFF7A10794012246400
:01235D00225D
:1018B600782A7C007D007BFF7A1079D67E007F1126
:1018C6001206C3E4F53B12259B7BFF7A10794D1275
:1018D6002464122049E4F53CF53DAE3CAF3D7C0E58
:1018E6007D38120741ED4C70057F2E121FDB853DBA
:1018F60082853C8374AAF0053DE53D7002053CC334
:1019060094FFE53C94FF40D2E4F53CF53D853D82ED
:10191600853C83E064AA60028063053DE53D700274
:10192600053CC394FFE53C94FF40E21220497BFF4F
:101936007A107970122464122049E4F53CF53D854D
:101946003D82853C837455F0AE3CAF3D7C0E7D38C0
:10195600120741ED4C70057F2E121FDB053DE53D5C
:101966007002053CC394FFE53C94FF40D2E4F53C8D
:10197600F53D853D82853C83E06455602312259BB9
:101986007541FF75421075435E853C44853D457B38
:10199600007A00797F1209747B007A00797F801AB9
:1019A600053DE53D7002053CC394FFE53C94FF40D0
:0D19B600C112259B7B007A00792A1224645F
:0119C3002201
:092592007D007BFF7E001206C3F0
:0B259B007F011225A6E4F508F50922D7
:101F6800787F7C007D007BFF7A1079E77E007F1107
:101F78001206C378907C007D007BFF7A1079F87E8A
:101F8800007F101206C378A07C007D007BFF7A11C9
:101F980079087E007F101206C378B07C007A117928
:101FA800187F111225927B007A00797F122464121F
:101FB80020497B007A0079901224641220497B0022
:101FC8007A0079A01224641220497B007A0079B043
:031FD8000224647C
:1021CC00787F7C007D007BFF7A1179297E007F115E
:1021DC001206C378907C007D007BFF7A11793A7EE1
:1021EC00007F0F1206C3789F7C007A1179497F0B10
:1021FC001225927B007A00797F1224641220497B8D
:10220C00007A0079901224641220497B007A0079BC
:07221C009F12246402204917
:1023E800787F7C007D007BFF7A1179547E007F1115
:1023F8001206C378907C007D007BFF7A1179657E98
:10240800007F121206C312259B7B007A00797F1287
:1024180024641220497B007A0079901224640220F7
:01242800496A
:1020B300787F7C007D007BFF7A1179777E007F0F2C
:1020C3001206C3788E7C007D007BFF7A1179867EB1
:1020D300007F101206C3789E7C007D007BFF7A117F
:1020E30079967E007F0E1206C312259B7B007A0031
:1020F300797F1224641220497B007A00798E12249E
:10210300641220497B007A00799E122464022049DC
:101E7000787F7C007D007BFF7A1179A47E007F0E45
:101E80001206C3788D7C007D007BFF7A1179B27ECB
:101E9000007F0B1206C378987C007D007BFF7A11CF
:101EA00079BD7E007F0C1206C378A47C007D007B88
:101EB000FF7A1179C97E007F0C1206C312259B7B25
:101EC000007A00797F1224641220497B007A00791D
:101ED0008D1224641220497B007A007998122464C0
:0C1EE0001220497B007A0079A4022464DF
:101EEC00787F7C007D007BFF7A1179D57E007F099D
:101EFC001206C378887C007D007BFF7A1179DE7E28
:101F0C00007F091206C378917C007D007BFF7A115B
:101F1C0079E77E007F091206C3789A7C007D007BEE
:101F2C00FF7A1179F07E007F091206C312259B7B84
:101F3C00007A00797F1224641220497B007A0079A0
:101F4C00881224641220497B007A0079911224644F
:0C1F5C001220497B007A00799A0224646C
:10166E00E4F590D290E590B4110A7FC87E00122462
:10167E009C7F3122E590B4210A7FC87E0012249C03
:10168E007F3422E590B4410A7FC87E0012249C7FED
:10169E003722E590B4810A7FC87E0012249C7F2AEF
:1016AE0022C290D291E590B4120A7FC87E00122415
:1016BE009C7F3222E590B4220A7FC87E0012249CC1
:1016CE007F3522E590B4420A7FC87E0012249C7FAB
:1016DE003822E590B4820A7FC87E0012249C7F30A7
:1016EE0022C291D292E590B4140A7FC87E001224D1
:1016FE009C7F3322E590B4240A7FC87E0012249C7E
:10170E007F3622E590B4440A7FC87E0012249C7F67
:10171E003922E590648470347FC87E0012249CE5E3
:10172E0090B4840A7FC87E0012249C7F2322E59009
:10173E00B4440A7FC87E0012249C7F4622E590B4F2
:10174E0024D67FC87E0012249C7F4522C292D2935B
:10175E00E590B4180A7FC87E0012249C7F4122E5D2
:10176E0090B4280A7FC87E0012249C7F4222E59006
:10177E00B4480A7FC87E0012249C7F4322E590B4B1
:10178E00880A7FC87E0012249C7F4422C2937F0069
:01179E002228
:1024C300D2B0759018122496122491D2B07590420E
:1024D300122496D2B0759081122496D2B075904290
:0E24E300122496122491D2B0759018C2B02225
:10235E00D2B0759001122496D2B0759002122496C6
:10236E00D2B0759004122496D2B0759008122496AD
:10237E00D2B0759010122496D2B075902012249679
:10238E00D2B0759040122496D2B0759080C2B07FB4
:06239E00647E0002249C95
:10255B00D2B07590AAC2B07FC87E0012249CD2B0B4
:0C256B00759055C2B07FC87E0002249C11
:10251800E4F52AF52BE52BF4452A6018D2B0852B73
:10252800907F0A7E0012249C052BE52B7002052A59
:04253800C2B080E1CC
:01253C00227C
:10253D007F011225A67F061225A67F021225A67FF2
:0E254D000F1225A67F141225A67F3C0225A69C
:101FDB008F43E50964134508700D7FC01225A67564
:101FEB000800750940803CE50964274508700D7FA2
:101FFB00D41225A67508007509548027E50964538A
:10200B004508700D7F941225A6750800750914807C
:10201B0012E50964674508700A7F801225A6E4F56E
:10202B0008F509D2B1C2B2854390D2B37F0A7E00C4
:0E203B0012249CC2B30509E5097002050822B3
:0B249100D2B0759024C2B07F647E00C2
:10249C00AA06AB07EB1BAE0270011AD39400EE94A4
:1024AC00004013E4FCFDC3ED946EEC940050E50D7C
:0624BC00BD00010C80F0E0
:0124C20022F7
:10211300E4F52DF52CF52BF52A12259B7BFF7A1080
:1021230079811224647F067E001211F98F2D8E2C83
:102133008D2B8C2A7F807E967D987C00AB2DAA2CDC
:10214300A92BA82AD31207A4500EE47F0AFEFDFC94
:10215300A82AC31207A4500C752D40752C42752B69
:0F2163000F752A00AF2DAE2CAD2BAC2A022172C6
:1022C600E4F52AFFFE12259B7BFF7A1079981224EB
:1022D600647F017E001211F9D3EF9455EE940050FD
:1022E60009C3EF940AEE940050047E007F2375899B
:1022F60002AC06AD077E017FF4120741C374FF9F4F
:0D230600F58CD28C308DFDC28DB2B080F709
:102172008F318E308D2F8C2EE47BE87A03F9F812A2
:1021820023A48F318E308D2F8C2E758901E4FFFEB2
:10219200FDFCAB31AA30A92FA82ED31207A44029E7
:1021A200758CFC758A17D28C308DFDC28CC28D74F1
:1021B200FF2531F531E53034FFF530E52F34FFF5F9
:0A21C2002FE52E34FFF52E80C42215
:061400008F2A8C2B8D2CBD
:10140600753100753201D2CDD2CCAC2DAD2EAE2FBA
:10141600AF30120810148F0000012C148700000250
:1014260058147F000004B0147700000960146F00A0
:101436000012C0146D00002580146500004B0014D6
:101446005D0000960014550000DDE00000146D7587
:10145600CBFF75CAFA804075CBFF75CAF780387521
:10146600CBFF75CAEE8030802875CBFF75CAB88071
:101476002675CBFF75CA70801E75CBFE75CAE080D7
:101486001675CBFD75CAC0800E75CBFB75CA8080FC
:101496000675CBFF75CADCD2CAC298D29CD2B1E51A
:1014A6002C6401452B702BD29FD29E852A99E5325A
:1014B6004531600F3099FDC299E532153270EF154E
:1014C6003180EBE52AE5D070047F0180027F00EFD2
:1014D6008028E52C6402452B7026D29FD29E852A51
:1014E60099E5324531600F3099FDC299E5321532E2
:1014F60070EF153180EBE52AE5D024FF929B80261C
:10150600E52C6403452B701EC29FD29EC299852A84
:1015160099E5324531600F3099FDC299E5321532B1
:1015260070EF153180EB3098FDAF99900000EFF029
:02153600B29869
:011538002290
:100003000202ABE86480F8E933E83360110460F07E
:10001300ED33EC337009E8FCE9FDEAFEEBFF220463
:1000230060DED3EB9FEA9EE99DE8C2E78CF0C2F75E
:1000330095F0400CE8CCF8E9CDF9EACEFAEBCFFB2A
:1000430012027685D0F05804700320D5B3E804700B
:10005300075002B2D50202B592D5EC0460F7E4CCA6
:10006300C0E0C398F8603B94186008400DD0E0FBF3
:1000730002028DE4FBFAC9FC8028E830E406E4C9F7
:10008300FBE4CAFCE830E305E4C9CACBFCE8540747
:100093006010F8C3E913F9EA13FAEB13FBEC13FC52
:1000A300D8F130F52FC3E49CFCEF9BFFEE9AFEEDF5
:1000B30099FDD0E0FBEF4E4D4C701222DB030202A0
:1000C300B2EC2CFCEF33FFEE33FEED33FDED30E706
:1000D300EB02028DEF2BFFEE3AFEED39FDD0E0FB94
:1000E30050130BBB00030202B5ED13FDEE13FEEF3D
:0800F30013FFEC13FC02028D67
:1000FB00EC4D6011E8497017ED33EC3304600DE4FF
:10010B00FCFFFEFD22E933E8330470F80202AB1268
:10011B00027658046009E4CC248150062850090269
:10012B0002B52840030202B2C0E0EB4A7044B9802A
:10013B0006D0E0FB0202A1EF4E701CBD8008EBFF66
:10014B00EAFEE9FD80EBE98DF0A4FEE5F00201E4A7
:10015B00E9CDF9EAFEEBFFEF89F0A4FCE5F0CE89DF
:10016B00F0A42EFFE435F0CD89F0A42DFEE435F09C
:10017B008067EF4E7005BD80D780C3EF8BF0A4ACCA
:10018B00F0EE8BF0A42CFCE435F0F8EF8AF0A42C05
:10019B00E5F038FCE433CB8DF0A42CFCE5F03BF818
:1001AB00EE8AF0A42CFCE5F038F8E433CF89F0A408
:1001BB002CFCE5F038CF3400CE89F0A42FFFE5F00E
:1001CB003EFEE433C98DF0A42EFEE5F039CD8AF066
:1001DB00A42FFFE5F03EFEE43DFD33D0E0FB5007DE
:1001EB000BBB000F0202B5EC2CFCEF33FFEE33FE22
:0601FB00ED33FD02028D50
:1002010075F020800E75F010800575F0087D007E78
:10021100007F003392D530D503120796EC3340109E
:10022100EF33FFEE33FEED33FDEC33FCD5F0ED2281
:0E023100E5F0247EA2D513CC92E7CDCEFF22BD
:10023F00EDD2E7CD33EC3392D524814006E4FFFEB7
:10024F00FDFC22FCE4CFCECDCC24E0501174FF8016
:10025F00EDC3CC13CCCD13CDCE13CECF13CF0470B3
:07026F00F030D5DE02079616
:10091800E5552441F8E6055522783E30070278412E
:10092800E475F0011207DA0206E92000EB7F2ED207
:10093800008018EF540F2490D43440D4FF30040BB7
:10094800EF24BFB41A0050032461FFE55660021576
:10095800560559E5597002055830070D783EE4757B
:10096800F0011207DAEF02072F0224F17403D2070D
:100978008003E4C207F5558B3E8A3F8940E4F5566B
:10098800F558F559E55660077F2012095380F5752B
:1009980057FFC201C200C202C203C205C206C20892
:1009A800120921FF700D3007057F00120964AF5945
:1009B800AE5822B4255FC2D5C204120921FF24D043
:1009C800B40A00501A75F00A785630D50508B6FFF3
:1009D8000106C6A426F620D5047002D20380D924C5
:1009E800CFB41A00EF5004C2E5D204020C51D20170
:1009F80080C6D20080C0D20280BCD2D580BAD205CF
:100A080080B47F201209532002077401B5560040B4
:100A1800F1120918FF12095302098CD208D2068074
:100A280095120918FB120918FA120918F94A4B709D
:100A38000679487A0D7BFF20022EE556602A7E0053
:100A48008E8275830012070260060EEE655770F0FD
:100A5800C2D5EBC0E0EAC0E0E9C0E0EE120CB1D0CC
:100A6800E0F9D0E0FAD0E0FB1206E9FF60AAEBC09B
:100A7800E0EAC0E0E9C0E0120953D0E02401F9D06F
:100A8800E03400FAD0E0FBE5570460DCD557D980A4
:100A980087D20280A2120C9460F7E5577001041205
:100AA8000364A957600DE557600914F557120D3B0B
:100AB800EF60F3EA30E702F404C3995077EAF425CB
:100AC800570430E701E404F557800D120C9460C117
:100AD800EA05572557120364EA7854F630E701E42B
:100AE800255704D5570420050114120CB1E4C0E0C1
:100AF800120D3B7854E6601320E70714F612093B01
:100B0800802204F6D0E014C0E07F0012093BE557CC
:100B180060071209321557800B300503120932D0CD
:100B2800E002098CD0E00480C5120C9460A0E5575F
:100B3800041203647854EAF6E557200502600104BC
:050B48002404120CB1B1
:100B4D0074FF04C0E0120D3B12093BE5572005026E
:100B5D006003120932D0E0B557E87F451209457898
:100B6D0054E67F2B30E7047F2DF404C0E0120953C7
:100B7D00D0E075F00A84C0F012093CD0E012093CB7
:100B8D0002098C791080027908C206C2088008D249
:100B9D00D5790A8004790AC2D5E557047002F55754
:100BAD00E4FAFDFEFF120918FC7B0820011312095F
:100BBD0018FD7B1030000A120918FE120918FF7B70
:100BCD0020EC3382D592D55013C3E43000069FFF3D
:100BDD00E49EFEE42001039DFDE49CFCE4CBF8C201
:100BED0001EC700CCFCECDCCE824F8F870F3801763
:100BFD00C3EF33FFEE33FEED33FDEC33FCEB33FB94
:100C0D00994002FB0FD8E9EB300105F8D0E0C4485C
:100C1D00B201C0E00AEC4D4E4F78207B0070C2EA65
:100C2D00B5570040BCC0E0120CB3D0F0D0E02001AD
:100C3D0004C4C0E0C4B201C0F012093CD0F0D5F03C
:100C4D00EB02098C1207EA0A29530B905809FA4C4A
:100C5D0009F6420B944F0B9C440B9C490A0F430B16
:100C6D00A2550AD3460B31450A9D470D685009FE22
:100C7D002D0A022E0A252B0A06230A23200D512A9E
:100C8D0009BE4800000A1DE557B4FF03755706124B
:100C9D000918FC120918FD120918FE120918FF781F
:100CAD004D020393790AA2D5200314300509B9101A
:100CBD00020404B9080104A2D52006025001042043
:100CCD0002689202B556005034C0E07F20300319FF
:100CDD007F30A20272067205500F120D0AC202C2B7
:100CED0006C205C2087F30800F300503E9C0E0124F
:100CFD000953300503D0E0F9D0E0B556CC300517D7
:100D0D007F30B9100C1209537F583004077F78805B
:100D1D0003B908031209533002057F2D0209537FD1
:100D2D00202008F87F2B2006F322920280CF7F002F
:100D3D00B407005005244DF8E6FF22286E756C6C43
:100D4D002900D2011209183001F8C201785630D5A8
:100D5D000108F60209BE2D50434958120918240303
:100D6D00B405004001E4900D6393120944743A12E6
:0A0D7D000944D203755604020B90DE
:10179F008F388E378D368C35E4FFFE7D807C3FABE6
:1017AF0038AA37A936A8351202DA7009AF38AE3722
:1017BF00AD36AC3522AF38AE37AD36AC351202C0D0
:1017CF00FBAF3CAE3BAD3AAC391202C0FFBF0108D4
:1017DF00E4FFFE7D807C3F22EF64046022EB640413
:1017EF00601DBB0127E4FFFEFDFCAB3CAA3BA93A01
:1017FF00A8391202DA60084006E4FFFEFDFC2274ED
:10180F00FFF53CF53BF53AF5390218ADE4F53DF53A
:10181F003EFFFEFDFCAB38AA37A936A8351202DA17
:10182F00504BAF3CAE3BAD3AAC3912023F8E3D8FC1
:10183F003EAC3DAD3EEC120206C8ECC8C9EDC9CABC
:10184F00EECACBEFCBAF3CAE3BAD3AAC3912000694
:10185F00E4FBFAF9F81202DA70A5AF38AE37AD36FD
:10186F00AC351203538F388E378D368C35AF38AE7B
:10187F0037AD36AC3512156DAB3CAA3BA93AA8393A
:10188F001200FB121C588F3C8E3B8D3A8C39E53E73
:10189F0030E00B1203538F3C8E3B8D3A8C39AF3CAB
:0718AF00AE3BAD3AAC39225B
:10027600E9D2E7C933E833F892D5EDD2E7CD33ECCE
:0702860033FC5002B2D52247
:10028D00EC30E7100FBF000C0EBE00080DBD0004D2
:10029D000BEB6014A2D5EB13FCED92E7FD2274FF7E
:1002AD00FCFDFEFF22E480F8A2D574FF13FC7D80D7
:0302BD00E480EFEB
:1002C000ED33EC33601004700FED547F7005740251
:0A02D00092E0227404220422E422CA
:1002DA0074F8CC6480CCC86480C8F58204604FC3CB
:1002EA00EB9FF5F0EA9E42F0E99D42F0E89C45F06A
:1002FA00603C501DE5825FFFE582D313CB5BCBF4F4
:10030A002B5582FB50280ABA002409B9002008801C
:10031A001DE5825BFBE582D313CF5FCFF4C3132FB6
:10032A005582FF50090EBE00050DBD00010CC3EB3E
:10033A009FF5F0EA9E42F0E99D42F0E89C45F060A4
:09034A0007CC4820E701B3EC22C6
:10035300ED33EC33600A047003BD8004ECB2E7FCB8
:010363002277
:10036400F920E72824F950037907E4F42402FB1860
:10037400DBFDE624FB5014E9600DE4F618E604F610
:0F038400B40A08E4F6D9F57401F60A22C2D522AC
:10039300ED33EC3392D5FA602AB4FF33EDC2E77B39
:1003A300FF60067A0379B8E4227A0379C120D50481
:1003B3007A0379BC224E614E002B494E46002D49EB
:1003C3004E4600E47A08F608DAFC7B00740722E85C
:1003D300C0E0ECC0E0EDC0E0EEC0E0EFC0E0EA75E5
:1003E300F010A4CAABF075F04DA42BFBE435F0FC80
:1003F300EA2410FAEB34C5FBEC34D9FCEDC2E7FF79
:1004030075F056A4F42411C5F0F434C58FF0A42A72
:10041300E5F03BE43CF620E714120566D0E0FFD09C
:10042300E0FED0E0FDD0E0FC1204998014F4041245
:100433000566D0E0FFD0E0FED0E0FDD0E0FC120086
:10044300FBD0E0F8E6FAEDD2E7CD33EC332482FBC0
:10045300E4C3CF33CFCE33CECD33CD33DBF37B0702
:1004630075F00A846004F6081B0AE5F0F6088FF0BD
:10047300740AA4FFACF08EF0740AA42CFEACF05006
:10048300010C8DF0740AA42CFDE435F0F608DBDED4
:03049300740722C9
:101C200033DA929E35B16011377FE5FE3921848920
:101C30003AAEC3FF3C1D955B3D6358473E75FDF0D2
:101C40003F3172183F800000C2D50202B50202ABDC
:101C5000BD80FA50F30202B2ED33EC330460F17B45
:101C60003B7AAA79B8783F1200FBED33EC3392D57A
:101C7000247B5011A2D570DB500BED44802404501E
:101C800004A2D580CEEFFBEEFAEDF9ECF812023F9C
:101C9000EFF582F404FC12020B12000AC082901CC1
:101CA0002074091205B5ED33CC33D0F092D525F070
:0A1CB000A2D57001C313CC13FD226E
:101539003E9248DA3ECCCCCD3F2AAAAB400000000F
:101549003F8000003F9837F03FB504F33FD744FC94
:101559003E3172173EB172173F0515913EDE5BD9D8
:10156900D2008002C200EDD2E7F8CD33EC3304702B
:101579000BBD800592D50202B50202AB40FBD31424
:1015890060F2F5F07C3FEE7A00C39496C8948B40E4
:10159900230AC89469C8941A401A0AC89468C89456
:1015A9001F40110AC8945AC89425400805F07A00CA
:1015B900CDC2E7CDC0F08C3F8D408E418F42EA23EA
:1015C90023C0E02449F582E43415F5831207CA12D1
:1015D900000AECC0E0EDC0E0EEC0E0EFC0E01207A9
:1015E900BAA83FA940AA41AB42120006D0E0FBD0FD
:1015F900E0FAD0E0F9D0E0B2E7F81204998C3F8D17
:10160900408E418F4290153974031205A6A83FA94F
:1016190040AA41AB421200FBD0E0600F2455F5828D
:10162900E43415F5831207CA12000A8C3F8D408EE7
:10163900418F42D0E0C3947FFDE49400FC1202067E
:101649007B187A727931783F1200FBA83FA940AA2A
:1016590041AB4212000A30000B7BD97A5B79DE7804
:051669003E1200FB220F
:100496000202B5EC5D046005E8590470030202AB84
:1004A600120276580460F6EC4860F2EC7004FDFE29
:1004B600FF22C860DB2481C85009C3986002500639
:1004C6000202B29850CAF582E9294B4A7005AB82FE
:1004D6000202A175F0007C1A7880C3EF9BEE9AEDBC
:1004E60099400DC3EF9BFFEE9AFEED99FDE842F0B1
:1004F600DC23ACF0D0E0FFD0E0FED0E0FDAB822004
:10050600E7101BEB60BAEC2CFCEF33FFEE33FEED8D
:1005160033FD02028DE803F830E705C0F075F00000
:10052600EF2FFFEE33FEED33FD40B830E7C280AA71
:100536003F8000004120000042C80000447A0000CD
:10054600461C400047C35000497424004B1896804F
:100556004CBEBC205A0E1BCA6753C21C749DC5AE46
:10056600FB60065407601C2323120594EB54386085
:100576000912058012058F1200FBECF8EDF9EEFA70
:10058600EFCB22EB12058F80F1543803241C900523
:1005960036FE93FC0EEE93FD0EEE930ECE93FF22E7
:1005A600C0E0EFFBEEFAEDF9ECF81200FBD0E0F557
:1005B600F0EFFBEEFAEDF9ECF81207BAA3A3A3A34A
:1005C600E8C0E0E9C0E0EAC0E0EBC0E0C0F012003D
:1005D600FB1207CAA3A3A3A312000AD0F0D0E0FB24
:0D05E600D0E0FAD0E0F9D0E0F8D5F0D42252
:03000000021DE4FA
:0C1DE400787FE4F6D8FD7581C0021E2B4C
:1005F300E709F608DFFA8046E709F208DFFA803EEA
:1006030088828C83E709F0A3DFFA8032E309F608D6
:10061300DFFA8078E309F208DFFA807088828C833E
:10062300E309F0A3DFFA806489828A83E0A3F608F2
:10063300DFFA805889828A83E0A3F208DFFA804CCC
:1006430080D280FA80C680D4806980F280338010A3
:1006530080A680EA809A80A880DA80E280CA80330C
:1006630089828A83ECFAE493A3C8C582C8CCC58384
:10067300CCF0A3C8C582C8CCC583CCDFE9DEE78054
:100683000D89828A83E493A3F608DFF9ECFAA9F0D3
:10069300EDFB2289828A83ECFAE0A3C8C582C8CC29
:1006A300C583CCF0A3C8C582C8CCC583CCDFEADE42
:1006B300E880DB89828A83E493A3F208DFF980CCA4
:1006C30088F0EF60010E4E60C388F0ED2402B4049D
:1006D3000050B9F582EB2402B4040050AF23234544
:0606E30082239006437320
:1006E900BB010689828A83E0225002E722BBFE020F
:0906F900E32289828A83E4932242
:10070200BB010CE58229F582E5833AF583E02250AC
:1007120006E92582F8E622BBFE06E92582F8E222F6
:0D072200E58229F582E5833AF583E4932210
:10072F00BB010689828A83F0225002F722BBFE01A9
:02073F00F322A3
:10074100BC000BBE0029EF8DF084FFADF022E4CC9C
:10075100F875F008EF2FFFEE33FEEC33FCEE9DEC65
:10076100984005FCEE9DFE0FD5F0E9E4CEFD22EDAB
:10077100F8F5F0EE8420D21CFEADF075F008EF2FF5
:10078100FFED33FD4007985006D5F0F222C398FDE6
:050791000FD5F0EA2283
:1023A400C2D5E830E70FB2D5E4C39BFBE49AFAE464
:1023B40099F9E498F8EC30E717B2D51223DA120849
:1023C40086E4C39BFBE49AFAE499F9E498F8800361
:1023D40012088630D50DE4C39FFFE49EFEE49DFD04
:0423E400E49CFC2257
:0E079600C3E49FFFE49EFEE49DFDE49CFC2274
:1007A400EB9FF5F0EA9E42F0E99D42F0EC6480C8CC
:0607B40064809845F0226C
:1007BA00E493FC740193FD740293FE740393FF2285
:1007CA00E493F8740193F9740293FA740393FB2285
:1007DA00FAE6FB0808E6F925F0F618E6CA3AF62220
:1007EA00D083D082F8E4937012740193700DA3A39E
:1007FA0093F8740193F5828883E4737402936860B2
:06080A00EFA3A3A380DFB1
:10081000D083D082E4937012740193700DA3A393DC
:10082000F8740193F5828883E4737402936C7012F8
:100830007403936D700C7404936E70067405936F5B
:0A08400060DDA3A3A3A3A3A380CA55
:1024F100EFB40A07740D1224FC740A309811A899DC
:10250100B8130CC2983098FDA899C298B811F6304A
:0725110099FDC299F5992222
:101DF000020D87E493A3F8E493A34003F68001F275
:101E000008DFF48029E493A3F85407240CC8C333F3
:101E1000C4540F4420C8834004F456800146F6DFC2
:101E2000E4800B0102040810204080902577E47EB6
:101E3000019360BCA3FF543F30E509541FFEE493B7
:101E4000A360010ECF54C025E060A840B8E493A37E
:101E5000FAE493A3F8E493A3C8C582C8CAC583CAA9
:101E6000F0A3C8C582C8CAC583CADFE9DEE780BE61
:012591000049
:10084A0075F008758200EF2FFFEE33FECD33CDCC65
:10085A0033CCC58233C5829BED9AEC99E5829840E8
:10086A000CF582EE9BFEED9AFDEC99FC0FD5F0D6C5
:10087A00E4CEFBE4CDFAE4CCF9A88222B800C1B9EF
:10088A000059BA002DEC8BF084CFCECDFCE5F0CB2D
:10089A00F97818EF2FFFEE33FEED33FDEC33FCEB66
:1008AA0033FB10D703994004EB99FB0FD8E5E4F921
:1008BA00FA227818EF2FFFEE33FEED33FDEC33FC0E
:1008CA00C933C910D7059BE99A4007EC9BFCE99A02
:1008DA00F90FD8E0E4C9FAE4CCFB2275F010EF2F47
:1008EA00FFEE33FEED33FDCC33CCC833C810D70747
:1008FA009BEC9AE899400AED9BFDEC9AFCE899F882
:0E090A000FD5F0DAE4CDFBE4CCFAE4C8F92214
:00000001FF
