82853783E064556023121589C6
:100AB900753CFF753D05753EC085373F8538407BE0
:100AC900007A00797212005F7B007A007972801ACD
:100AD9000538E53870020537C394FFE53794FF40C0
:0D0AE900C11215897B007A007925121428AE
:010AF60022DD
:091580007D007BFF7E0012042FA8
:0B1589007F01121594E4F508F509221B
:1010010078727C007D007BFF7A0679487E007F1133
:1010110012042F78837C007D007BFF7A0679597E4C
:10102100007F1012042F78937C007D007BFF7A06ED
:1010310079697E007F1012042F78A37C007A0679EB
:10104100797F111215807B007A00797212142812AF
:1010510010E27B007A0079831214281210E27B00DF
:101061007A0079931214281210E27B007A0079A396
:031071000214283E
:1013B50078727C007D007BFF7A06798A7E007F113A
:1013C50012042F78837C007A06799B7F0F12158093
:1013D5007B007A0079721214281210E27B007A00E1
:0813E50079831214280210E2C2
:1013740078727C007D007BFF7A0679AA7E007F115B
:1013840012042F78837C007D007BFF7A0679BB7E74
:10139400007F1212042F1215897B007A00797212D1
:1013A40014281210E27B007A0079831214280210A8
:0113B400E256
:100F090078727C007D007BFF7A0679CD7E007F0EAA
:100F190012042F78807C007D007BFF7A0679DB7EC6
:100F2900007F0B12042F788B7C007D007BFF7A06F3
:100F390079E67E007F0C12042F78977C007D007B78
:100F4900FF7A0679F27E007F0C12042F1215897B35
:100F5900007A0079721214281210E27B007A007963
:100F6900801214281210E27B007A00798B1214285F
:0C0F79001210E27B007A00799702142825
:100F850078727C007D007BFF7A0679FE7E007F0902
:100F950012042F787B7C007D007BFF7A0779077E22
:100FA500007F0912042F78847C007D007BFF7A077F
:100FB50079107E007F0912042F788D7C007D007BDF
:100FC500FF7A0779197E007F0912042F1215897B94
:100FD500007A0079721214281210E27B007A0079E7
:100FE5007B1214281210E27B007A007984121428EF
:0C0FF5001210E27B007A00798D021428B3
:1008B800E4F590D290E590B4110A7FC87E00121436
:1008C800607F3122E590B4210A7FC87E001214604F
:1008D8007F3422E590B4410A7FC87E001214607FFD
:1008E8003722E590B4810A7FC87E001214607F2AFF
:1008F80022C290D291E590B4120A7FC87E001214E9
:10090800607F3222E590B4220A7FC87E001214600C
:100918007F3522E590B4420A7FC87E001214607FBA
:100928003822E590B4820A7FC87E001214607F30B6
:1009380022C291D292E590B4140A7FC87E001214A4
:10094800607F3322E590B4240A7FC87E00121460C9
:100958007F3622E590B4440A7FC87E001214607F77
:100968003922E590648470347FC87E00121460E5F3
:1009780090B4840A7FC87E001214607F2322E59019
:10098800B4440A7FC87E001214607F4622E590B402
:1009980024D67FC87E001214607F4522C292D2936B
:1009A800E590B4180A7FC87E001214607F4122E5E2
:1009B80090B4280A7FC87E001214607F4222E59016
:1009C800B4480A7FC87E001214607F4322E590B4C1
:1009D800880A7FC87E001214607F4422C2937F0079
:0109E80022EC
:10148700D2B075901812145A121455D2B0759042F2
:1014970012145AD2B075908112145AD2B075904274
:0E14A70012145A121455D2B0759018C2B02209
:1012EB00D2B075900112145AD2B075900212145AE2
:1012FB00D2B075900412145AD2B075900812145AC9
:10130B00D2B075901012145AD2B075902012145A94
:10131B00D2B075904012145AD2B0759080C2B07F83
:06132B00647E0002146064
:10154900D2B07590AAC2B07FC87E00121460D2B022
:0C155900759055C2B07FC87E000214607F
:10150600E4F525F526E526F445256018D2B08526AE
:10151600907F0A7E001214600526E52670020525D6
:04152600C2B080E1EE
:01152A00229E
:10152B007F011215947F061215947F021215947F7A
:0E153B000F1215947F141215947F3C02159424
:101074008F3EE50964134508700D7FC01215947501
:101084000800750940803CE50964274508700D7F18
:10109400D41215947508007509548027E509645322
:1010A4004508700D7F941215947508007509148015
:1010B40012E50964674508700A7F80121594E4F507
:1010C40008F509D2B1C2B2853E90D2B37F0A7E0040
:0E10D400121460C2B30509E509700205082276
:0B145500D2B0759024C2B07F647E000E
:10146000AA06AB07EB1BAE0270011AD39400EE94F0
:10147000004013E4FCFDC3ED946EEC940050E50DC8
:06148000BD00010C80F02C
:011486002243
:10133100E4F525F5261215897BFF7A0579E3121468
:1013410028AE25AF26E4FCFD7B807A967998F8C318
:101351001204D7400AE526940AE5259400500D7F32
:10136100077E001211A58E258F2680D5AF26AE25CA
:031371000214B5AE
:10114C00E4F525F526F5271215897BFF7A0579FA42
:10115C00121428D3E527943CE5269400500BC3E5E4
:10116C0027940AE5269400500D7F027E001211A5EB
:10117C008E268F2780DD758902E525642A60191279
:10118C0008B88F25C374FF9527F58CD28C308DFD54
:08119C00B290C28DC28C80E10B
:0111A4002228
:1014B5007C007D64120482758901D3EF9400EE945B
:1014C500004016758CFF758AF6D28C308DFDC28C66
:0A14D500C28DEF1F70E41E80E122BB
:03000000020E7D70
:0C0E7D00787FE4F6D8FD7581B3020EC446
:10035F00E709F608DFFA8046E709F208DFFA803E80
:10036F0088828C83E709F0A3DFFA8032E309F6086D
:10037F00DFFA8078E309F208DFFA807088828C83D5
:10038F00E309F0A3DFFA806489828A83E0A3F60889
:10039F00DFFA805889828A83E0A3F208DFFA804C63
:1003AF0080D280FA80C680D4806980F2803380103A
:1003BF0080A680EA809A80A880DA80E280CA8033A3
:1003CF0089828A83ECFAE493A3C8C582C8CCC5831B
:1003DF00CCF0A3C8C582C8CCC583CCDFE9DEE780EB
:1003EF000D89828A83E493A3F608DFF9ECFAA9F06A
:1003FF00EDFB2289828A83ECFAE0A3C8C582C8CCC0
:10040F00C583CCF0A3C8C582C8CCC583CCDFEADED8
:10041F00E880DB89828A83E493A3F208DFF980CC3A
:10042F0088F0EF60010E4E60C388F0ED2402B40433
:10043F000050B9F582EB2402B4040050AF232345DA
:06044F0082239003AF734D
:10045500BB010CE58229F582E5833AF583E022505C
:1004650006E92582F8E622BBFE06E92582F8E222A6
:0D047500E58229F582E5833AF583E49322C0
:10048200BC000BBE0029EF8DF084FFADF022E4CC5E
:10049200F875F008EF2FFFEE33FEEC33FCEE9DEC27
:1004A200984005FCEE9DFE0FD5F0E9E4CEFD22ED6D
:1004B200F8F5F0EE8420D21CFEADF075F008EF2FB7
:1004C200FFED33FD4007985006D5F0F222C398FDA8
:0504D2000FD5F0EA2245
:1004D700EB9FF5F0EA9E42F0E99D42F0EC6480C89C
:0604E70064809845F0223C
:1004ED00D083D082F8E4937012740193700DA3A39E
:1004FD0093F8740193F5828883E4737402936860B2
:06050D00EFA3A3A380DFB1
:10000300E548243CF8E60548227839300702783C75
:10001300E475F00112053E0205132000EB7F2ED29A
:10002300008018EF540F2490D43440D4FF30040BD5
:10003300EF24BFB41A0050032461FFE549600215A1
:1000430049054CE54C7002054B30070D7839E475D2
:10005300F00112053EEF02052C0214DF7403D207F0
:100063008003E4C207F5488B398A3A893BE4F549B2
:10007300F54BF54CE54960077F2012003E80F5758E
:100083004AFFC201C200C202C203C205C206C208BD
:1000930012000CFF700D3007057F0012004FAF4CAC
:1000A300AE4B22B4255FC2D5C20412000CFF24D08C
:1000B300B40A00501A75F00A784930D50508B6FF1E
:1000C3000106C6A426F620D5047002D20380D924E3
:1000D300CFB41A00EF5004C2E5D20402024FD2019A
:1000E30080C6D20080C0D20280BCD2D580BAD205ED
:1000F30080B47F2012003E2002077401B5490040FE
:10010300F1120003FF12003E020077D208D20680EC
:1001130095120003FB120003FA120003F94A4B7015
:100123000679207A037BFF20022EE549602A7E00B0
:100133008E8275830012045560060EEE654A70F0D8
:10014300C2D5EBC0E0EAC0E0E9C0E0EE120296D00F
:10015300E0F9D0E0FAD0E0FB120513FF60AAEBC090
:10016300E0EAC0E0E9C0E012003ED0E02401F9D0AB
:10017300E03400FAD0E0FBE54A0460DCD54AD980DC
:10018300877BFF7A027992D202809C791080027970
:1001930008C206C2088008D2D5790A8004790AC247
:1001A300D5E54A047002F54AE4FAFDFEFF120003A6
:1001B300FC7B08200113120003FD7B1030000A12A0
:1001C3000003FE120003FF7B20EC3382D592D5504F
:1001D30013C3E43000069FFFE49EFEE42001039D69
:1001E300FDE49CFCE4CBF8C201EC700CCFCECDCC8B
:1001F300E824F8F870F38017C3EF33FFEE33FEED16
:1002030033FDEC33FCEB33FB994002FB0FD8E9EBF6
:10021300300105F8D0E0C448B201C0E00AEC4D4E0D
:100223004F78207B0070C2EAB54A0040BCC0E012A0
:100233000298D0F0D0E0200104C4C0E0C4B201C0F1
:10024300F0120027D0F0D5F0EB0200771204ED0195
:100253001453018E5800E54C00E14201924F019A7C
:0F02630044019A4900FA4301A0550184460184E1
:100272004501844703405000E92D00ED2E01102B6B
:1002820000F123010E2003292A00A94800000108D9
:100292003F3F3F00790AA2D5200314300509B91067
:1002A200020404B9080104A2D52006025001042068
:1