51213CF92
:010ADB0022F8
:091511007D007BFF7E0012042F17
:0B151A007F01121525E4F508F50922F9
:10109C0078727C007D007BFF7A06792D7E007F11B3
:1010AC0012042F78837C007D007BFF7A06793E7ECC
:1010BC00007F1012042F78937C007D007BFF7A0652
:1010CC00794E7E007F1012042F78A37C007A06796B
:1010DC005E7F111215117B007A0079721213CF12F8
:1010EC00117D7B007A0079831213CF12117D7B0066
:1010FC007A0079931213CF12117D7B007A0079A3B9
:03110C000213CFFC
:10135C0078727C007D007BFF7A06796F7E007F11AE
:10136C0012042F78837C007A0679807F0F12151176
:10137C007B007A0079721213CF12117D7B007A00F8
:08138C0079831213CF02117DD9
:10131B0078727C007D007BFF7A06798F7E007F11CF
:10132B0012042F78837C007D007BFF7A0679A07EE8
:10133B00007F1212042F12151A7B007A0079721299
:10134B0013CF12117D7B007A0079831213CF021118
:01135B007D14
:100FA40078727C007D007BFF7A0679B27E007F0E2A
:100FB40012042F78807C007D007BFF7A0679C07E46
:100FC400007F0B12042F788B7C007D007BFF7A0658
:100FD40079CB7E007F0C12042F78977C007D007BF8
:100FE400FF7A0679D77E007F0C12042F12151A7B24
:100FF400007A0079721213CF12117D7B007A007986
:10100400801213CF12117D7B007A00798B1213CFDB
:0C10140012117D7B007A0079970213CF47
:1010200078727C007D007BFF7A0679E37E007F0981
:1010300012042F787B7C007D007BFF7A0679EC7EA2
:10104000007F0912042F78847C007D007BFF7A06E4
:1010500079F57E007F0912042F788D7C007D007B5E
:10106000FF7A0679FE7E007F0912042F12151A7B83
:10107000007A0079721213CF12117D7B007A007909
:101080007B1213CF12117D7B007A0079841213CF6B
:0C10900012117D7B007A00798D0213CFD5
:10089D00E4F590D290E590B4110A7FC87E00121451
:1008AD00077F3122E590B4210A7FC87E001214071C
:1008BD007F3422E590B4410A7FC87E001214077F71
:1008CD003722E590B4810A7FC87E001214077F2A73
:1008DD0022C290D291E590B4120A7FC87E00121404
:1008ED00077F3222E590B4220A7FC87E00121407DA
:1008FD007F3522E590B4420A7FC87E001214077F2F
:10090D003822E590B4820A7FC87E001214077F302A
:10091D0022C291D292E590B4140A7FC87E001214BF
:10092D00077F3322E590B4240A7FC87E0012140796
:10093D007F3622E590B4440A7FC87E001214077FEB
:10094D003922E590648470347FC87E00121407E567
:10095D0090B4840A7FC87E001214077F2322E5908D
:10096D00B4440A7FC87E001214077F4622E590B476
:10097D0024D67FC87E001214077F4522C292D293DF
:10098D00E590B4180A7FC87E001214077F4122E556
:10099D0090B4280A7FC87E001214077F4222E5908A
:1009AD00B4480A7FC87E001214077F4322E590B435
:1009BD00880A7FC87E001214077F4422C2937F00ED
:0109CD002207
:10142E00D2B07590181214011213FCD2B0759042FE
:10143E00121401D2B0759081121401D2B07590427F
:0E144E001214011213FCD2B0759018C2B02215
:1012D500D2B0759001121401D2B0759002121401AA
:1012E500D2B0759004121401D2B075900812140191
:1012F500D2B0759010121401D2B07590201214015D
:10130500D2B0759040121401D2B0759080C2B07FF2
:06131500647E00021407D3
:1014C600D2B07590AAC2B07FC87E00121407D2B0FF
:0C14D600759055C2B07FC87E000214075C
:10148300E4F525F526E526F445256018D2B0852632
:10149300907F0A7E001214070526E52670020525B3
:0414A300C2B080E172
:0114A7002222
:1014A8007F011215257F061215257F021215257F4B
:0E14B8000F1215257F141215257F3C021525F5
:10110F008F3EE50964134508700D7FC012152575D4
:10111F000800750940803CE50964274508700D7F7C
:10112F00D41215257508007509548027E5096453F5
:10113F004508700D7F9412152575080075091480E8
:10114F0012E50964674508700A7F80121525E4F5DA
:10115F0008F509D2B1C2B2853E90D2B37F0A7E00A4
:0E116F00121407C2B30509E509700205082233
:0B13FC00D2B0759024C2B07F647E0068
:10140700AA06AB07EB1BAE0270011AD39400EE9449
:10141700004013E4FCFDC3ED946EEC940050E50D21
:06142700BD00010C80F085
:01142D00229C
:10153700E4FFFE7BFF7A0579CD1213CF120C8A02E6
:02154700155A33
:091564007BFF7A0579E50213CF43
:09155A00C3E49FF526E49EF5258B
:011563002265
:03000000020F18D4
:0C0F1800787FE4F6D8FD7581B3020F5F0E
:10035F00E709F608DFFA8046E709F208DFFA803E80
:10036F0088828C83E709F0A3DFFA8032E309F6086D
:10037F00DFFA8078E309F208DFFA807088828C83D5
:10038F00E309F0A3DFFA806489828A83E0A3F60889
:10039F00DFFA805889828A83E0A3F208DFFA804C63
:1003AF0080D280FA80C680D4806980F2803380103A
:1003BF0080A680EA809A80A880DA80E280CA8033A3
:1003CF0089828A83ECFAE493A3C8C582C8CCC5831B
:1003DF00CCF0A3C8C582C8CCC583CCDFE9DEE780EB
:1003EF000D89828A83E493A3F608DFF9ECFAA9F06A
:1003FF00EDFB2289828A83ECFAE0A3C8C582C8CCC0
:10040F00C583CCF0A3C8C582C8CCC583CCDFEADED8
:10041F00E880DB89828A83E493A3F208DFF980CC3A
:10042F0088F0EF60010E4E60C388F0ED2402B40433
:10043F000050B9F582EB2402B4040050AF232345DA
:06044F0082239003AF734D
:10045500BB010CE58229F582E5833AF583E022505C
:1004650006E92582F8E622BBFE06E92582F8E222A6
:0D047500E58229F582E5833AF583E49322C0
:10048200BC000BBE0029EF8DF084FFADF022E4CC5E
:10049200F875F008EF2FFFEE33FEEC33FCEE9DEC27
:1004A200984005FCEE9DFE0FD5F0E9E4CEFD22ED6D
:1004B200F8F5F0EE8420D21CFEADF075F008EF2FB7
:1004C200FFED33FD4007985006D5F0F222C398FDA8
:0504D2000FD5F0EA2245
:1004D700D083D082F8E4937012740193700DA3A3B4
:1004E70093F8740193F5828883E4737402936860C8
:0604F700EFA3A3A380DFC8
:10000300E548243CF8E60548227839300702783C75
:10001300E475F0011205280204FD2000EB7F2ED2C7
:10002300008018EF540F2490D43440D4FF30040BD5
:10003300EF24BFB41A0050032461FFE549600215A1
:1000430049054CE54C7002054B30070D7839E475D2
:10005300F001120528EF02051602145C7403D2079F
:100063008003E4C207F5488B398A3A893BE4F549B2
:10007300F54BF54CE54960077F2012003E80F5758E
:100083004AFFC201C200C202C203C205C206C208BD
:1000930012000CFF700D3007057F0012004FAF4CAC
:1000A300AE4B22B4255FC2D5C20412000CFF24D08C
:1000B300B40A00501A75F00A784930D50508B6FF1E
:1000C3000106C6A426F620D5047002D20380D924E3
:1000D300CFB41A00EF5004C2E5D20402024FD2019A
:1000E30080C6D20080C0D20280BCD2D580BAD205ED
:1000F30080B47F2012003E2002077401B5490040FE
:10010300F1120003FF12003E020077D208D20680EC
:1001130095120003FB120003FA120003F94A4B7015
:100123000679207A037BFF20022EE549602A7E00B0
:100133008E8275830012045560060EEE654A70F0D8
:10014300C2D5EBC0E0EAC0E0E9C0E0EE120296D00F
:10015300E0F9D0E0FAD0E0FB1204FDFF60AAEBC0A7
:10016300E0EAC0E0E9C0E012003ED0E02401F9D0AB
:10017300E03400FAD0E0FBE54A0460DCD54AD980DC
:10018300877BFF7A027992D202809C791080027970
:1001930008C206C2088008D2D5790A8004790AC247
:1001A300D5E54A047002F54AE4FAFDFEFF120003A6
:1001B300FC7B08200113120003FD7B1030000A12A0
:1001C3000003FE120003FF7B20EC3382D592D5504F
:1001D30013C3E43000069FFFE49EFEE42001039D69
:1001E300FDE49CFCE4CBF8C201EC700CCFCECDCC8B
:1001F300E824F8F870F38017C3EF33FFEE33FEED16
:1002030033FDEC33FCEB33FB994002FB0FD8E9EBF6
:10021300300105F8D0E0C448B201C0E00AEC4D4E0D
:100223004F78207B0070C2EAB54A0040BCC0E012A0
:100233000298D0F0D0E0200104C4C0E0C4B201C0F1
:10024300F0120027D0F0D5F0EB0200771204D701AB
:100253001453018E5800E54C00E14201924F019A7C
:0F02630044019A4900FA4301A0550184460184E1
:100272004501844703405000E92D00ED2E01102B6B
:1002820000F123010E2003292A00A94800000108D9
:100292003F3F3F00790AA2D5200314300509B91067
:1002A200020404B9080104A2D52006025001042068
:1002B20002689202B549005034C0E07F2030031931
:1002C2007F30A20272067205500F1202EFC202C202
:1002D20006C205C2087F30800F300503E9C0E01274
:1002E200003E300503D0E0F9D0E0B549CC30051727
:1002F2007F30B9100C12003E7F583004077F78809F
:1003020003B9080312003E3002057F2D02003E7F32
:10031200202008F87F2B2006F322920280CF286E3D
:10032200756C6C2900D2011200033001F8C2017809
:100332004930D50108F60200A92D50434958120050
:10034200032403B405004001E490033B9312002F01
:0D035200743A12002FD20375490402018E87
:100F2400020707E493A3F8E493A34003F68001F2D5
:100F340008DFF48029E493A3F85407240CC8C333CE
:100F4400C4540F4420C8834004F456800146F6DF9D
:100F5400E4800B01020408102040809014E2E47E37
:100F6400019360BCA3FF543F30E509541FFEE49392
:100F7400A360010ECF54C025E060A840B8E493A359
:100F8400FAE493A3F8E493A3C8C582C8CAC583CA84
:100F9400F0A3C8C582C8CAC583CADFE9DEE780BE3C
:0114FC0000EF
:1004FD00BB010689828A83E0225002E722BBFE02FD
:09050D00E32289828A83E493222F
:10051600BB010689828A83F0225002F722BBFE01C4
:02052600F322BE
:10052800FAE6FB0808E6F925F0F618E6CA3AF622D4
:10145C00EFB40A07740D121467740A309811A89926
:10146C00B8130CC2983098FDA899C298B811F630F0
:07147C0099FDC299F59922C8
:00000001FF
:100538005072657373203120666F722052414