:10058D005072657373203120666F722052414D2079
:10059D006F72203220666F7220524F4D7E00526571
:1005AD007475726E696E672E2E2E7E005072657395
:1005BD0073202A20746F2065646974207468652027
:1005CD006E65787420627974657E00466F756E6411
:1005DD003A207E00204E6F7420466F756E64217E2A
:1005ED00004C6F6164696E6720307841412E2E2E6C
:1005FD007E00426164204D656D6F72793A20253021
:10060D0034587E004C6F6164696E672030783535E3
:10061D002E2E2E7E00456E7465722044656C6179B8
:10062D002054696D65287553293A7E00313030307C
:10063D00303030307E004655434B54484953535467
:10064D005550494450524F4752414D7E00456E74AE
:10065D00657220576176656C656E67746820284BEE
:10066D00487A3A7E004655434B204655434B20462B
:10067D0055434B7E0020204B6576696E204A2E2017
:10068D00426972647E0028507265737320616E79C1
:10069D00204B65792E2E2E297E004D656D6F72795A
:1006AD0020697320676F6F64217E00312E204C45C9
:1006BD0044207061747465726E737E00322E204614
:1006CD0072656520547970696E677E00332E204DFA
:1006DD00656D6F727920746573747E00342E2047BA
:1006ED006F20546F205061676520327E00312E20BF
:1006FD004D656D6F72792046756E63737E00322E77
:10070D00204D43552054696D6572737E00312E2046
:10071D0044656C6179202874696D65297E00322EDF
:10072D002047656E657261746520576176657E0040
:10073D00312E204163636F726469616E7E00322ECB
:10074D0020536C696465727E00332E205368696690
:10075D007465727E00342E20436F756E7465727EE3
:10076D0000312E2044756D707E00322E204D6F7637
:10077D00657E00332E20456469747E00342E20463C
:05078D00696E647E00AE
:1016DA00100F456E74657220416464726573733AC3
:0A16EA007E0002080000020B000061
:10079200E4F522F523F524784D7C00FD7BFF7A06F3
:1007A2007982FE7F1112042F785E7C007D007BFF30
:1007B2007A0679937E007F1412042FC2B01216A01B
:1007C200E4F590FB7A00794D1215C71212BD7B0039
:1007D2007A00795E1215C7E50A70071209288F0A96
:1007E20080F57FC87E00807212171B8F0AE50A64AB
:1007F200317036121071E50A6423606112171B8F83
:100802000AE50AB4310512162680EBE50AB4320570
:100812001214CD80E1E50AB433051216BE80D7E585
:100822000AB434D212167B80CDE50A6432701F7F7F
:1008320001121709E50A6423600D12171B8F0A12B1
:10084200124F1215FB80ED7F01121709800FE50A86
:10085200B4330F120A597F887E131215FF121169E1
:100862008086E50A64347080E50A64237003020915
:100872002212155412171B8F0AE50A6431706CE5B7
:100882000A642370030209181210ED12171B8F0A53
:10089200E50A643170301216FE7BFF7A05798D12FB
:1008A20015C712171B8F0AE50AB43105120F5180C2
:1008B20031E50AB43205120EBB80277BFF7A057937
:1008C200AB1215C7801CE50AB4320512143180122E
:1008D200E50AB433051213DF8008E50AB4340312C3
:1008E20014827FF47E011215FF8094E50A6432704F
:1008F20025E50A6423601F12151312171B8F0AE5E0
:100902000AB431051211DC8008E50AB4320312136D
:10091200861215FB80DB7FE87E031215FF02086A50
:060922001211690207EA50
:02158C00AE07A8
:10158E00EE54F0FFEE540FF52CEFC4540FFF43074B
:10159E0030432C30EFD39439400474072FFFE52CE1
:1015AE00D3943940067407252CF52C12124FAF2C0C
:0315BE0002124FC7
:100E0D00EE54F0FCEE540FF52C752D00752E00EF01
:100E1D0054F0F52F753000EF540FF531ECC4540F2D
:100E2D00FD7C00430530E52CF52D752C00432D3050
:100E3D00E52EC4F854F0C868F52EE52FC4540F48BC
:100E4D00F52F432F30433130D3ED9439EC940040DE
:100E5D000774072DFDE433FCD3E52D9439E52C946F
:100E6D0000400B7407252DF52DE4352CF52CD3E51D
:100E7D002F9439E52E9400400B7407252FF52FE4A0
:100E8D00352EF52ED3E5319439E5309400400B74B1
:100E9D00072531F531E43530F530AF0512124FAF7E
:0E0EAD002D12124FAF2F12124FAF3102124F03
:1012BD007F0A7E001215FFD3E5099413E5086480BB
:1012CD009480500C7FC012170975080075094022D3
:1012DD00D3E5099427E50864809480500C7FD412DF
:1012ED00170975080075095422D3E5099453E508CB
:1012FD0064809480500C7F9412170975080075094D
:10130D001422D3E5099467E50864809480500A7F20
:0A131D0080121709E4F508F5092213
:100D3D00E4F52EF52FF530F52C752D037F1E7E0075
:100D4D001215FF12171B8F3012124FE52FC4F854D6
:100D5D000FC868F52FE52EC454F048F52EE5301276
:100D6D0004FF0DA3300DAB310DB0320DB5330DBAFF
:100D7D00340DBF350DC4360DC9370DCE380DD339F1
:100D8D000DD8410DDD420DE2430DE7440DEC450D4F
:100D9D00F14600000DF4852E2E852F2F8049432F0F
:100DAD00018044432F02803F432F03803A432F0499
:100DBD008035432F058030432F06802B432F07802E
:100DCD0026432F088021432F09801C432F0A8017AB
:100DDD00432F0B8012432F0C800D432F0D800843A2
:100DED002F0E8003432F0FE52D152D7002152CC3EB
:0F0DFD00E52C648094804003020D49AE2EAF2F89
:010E0C0022C3
:100C5F00E4F52AF52BF52C12171B8F2C12124FE5EA
:100C6F002CD39439403AE52CB44105752C3A803099
:100C7F00E52CB44205752C3B8026E52CB443057555
:100C8F002C3C801CE52CB44405752C3D8012E52CC2
:100C9F00B44505752C3E8008E52CB44603752C3FF2
:100CAF00E52CC454F0F52C12171B752A008F2B124C
:100CBF00124FD3E52B9439E52A94004058E52B6465
:100CCF0041452A7007F52A752B3A8049E52B644276
:100CDF00452A7007F52A752B3B803AE52B6443456F
:100CEF002A7007F52A752B3C802BE52B6444452A87
:100CFF007007F52A752B3D801CE52B6445452A703E
:100D0F0007F52A752B3E800DE52B6446452A7005A5
:100D1F00F52A752B3F532B0F752A00E52B422CAF6D
:0D0D2F002C12124F7FF47E011215FFAF2C25
:010D3C002294
:10171B00E4FFEF700B7F64FE1215FF12092880F2B5
:01172B00229B
:040B67008E288F291C
:100B6B00E4F52AF52BF532F531F530F52FC3E529F0
:100B7B0094FFE52894004003020C4F12171B8F2C97
:100B8B00E52C24D0B40A00507C900BA275F003A482
:100B9B00C58325F0C58373020BC0020BC2020BCABF
:100BAB00020BD2020BDA020BE2020BEA020BF2028D
:100BBB000BFA020C02804E752D00752E01803E75CE
:100BCB002D00752E028036752D00752E03802E7527
:100BDB002D00752E048026752D00752E05801E7533
:100BEB002D00752E068016752D00752E07800E753F
:100BFB002D00752E088006752D00752E09AE2DAFB4
:100C0B002E7C00800AE4F52DF52EAE2DAF2EFC7D4B
:100C1B000A120482EF2532FBEE3531FAE43530F956
:100C2B00EC352FF8EB6529F532EA6528F531E9F556
:100C3B0030E8F52FE529152970021528AF2C121273
:100C4B004F020B787FF47E011215FFAF32AE31AD40
:030C5B0030AC2F8B
:010C5E002273
:10170900C2B1C2B28F90D2B37F0A7E001215FFC256
:02171900B322F9
:0615C1007B007A00790FA7
:0615C7008B398A3A893BD2
:1015CD00E4F53CF53DAB39AA3AA93B853D82853C16
:1015DD0083120455FF647E600D12124F053DE53DEB
:0615ED0070E3053C80DF05
:0115F30022D5
:100F5100E4F525F5261216FE1215C1120D3D8E255A
:100F61008F26E4F527F528750A2AE50A64236073BC
:100F71001216FEC3E5289410E5279400504DE5268E
:100F81002528F52BE5253527F52AE5285403701585
:100F9100E528452760031212BDAF2BAE2A120E0DB4
:100FA1007F3A12124F852B82852A83E0F52912158B
:100FB100FB852B82852A83E0FF12158C7F2012127C
:100FC1004F0528E52870AC052780A8E5282526F5DA
:100FD10026E5273525F525E4F527F52812171B8F7A
:030FE1000A8087FC
:010FE40022EA
:100EBB00E4F525F5261216FE1215C1120D3D8E25F1
:100ECB008F26E4F527F528750A2AE50A6423607551
:100EDB001216FEC3E5289410E5279400504FE52623
:100EEB002528F52BE5253527F52AE528540370151C
:100EFB00E528452760031212BDAF2BAE2A120E0D4B
:100F0B007F3A12124F852B82852A83E493F529129F
:100F1B0015FB852B82852A83E493FF12158C7F208A
:100F2B0012124F0528E52870AA052780A6E528256B
:100F3B0026F526E5273525F525E4F527F52812179F
:050F4B001B8F0A8085E8
:010F5000227E
:10143100E4F525F526F527F528FFFE1216FE12150F
:10144100C1120D3D8E258F261212BD1215C1120D2E
:101451003D8E278F281216FEE4FEFFE5262FFDE5BF
:10146100253E8D82F583E0FDE5282FFBE5273E8BA8
:1014710082F583EDF00FBF00010EEF64104E70DBBB
:011481002248
:1013DF00E4F525F5261216FE1215C1120D3D8E27C6
:1013EF008F281216FE750A2AE50A642A7033120C2A
:1013FF005F8F291216FEE5282526FFE52735258F55
:10140F0082F583E529F00526E526700205257BFF89
:10141F007A0579B91215C712171B8F0A1216FE809B
:01142F00C7F5
:011430002299
:10148200E4F526F5271216FE120C5F8F25C3E52719
:1014920094FFE52694FF5024852782852683E0B5B4
:1014A20025107BFF7A0579D81215C7AF27AE260221
:1014B2000E0D0527E52770D5052680D1AF2512151B
:0A14C2008C7BFF7A0579E11215C753
:0114CC0022FD
:100A590078257C007D007BFF7A0679A77E007F11CF
:100A690012042FE4F5361216FE7BFF7A0579EE1291
:100A790015C71212BDE4F537F538AE37AF387C0E1D
:100A89007D38120494ED4C70057F2E12124F853873
:100A99008285378374AAF00538E53870020537C3B3
:100AA90094FFE53794FF40D2E4F537F5388538826D
:100AB900853783E064AA600280630538E5387002EF
:100AC9000537C394FFE53794FF40E21212BD7BFF5F
:100AD9007A0679111215C71212BDE4F537F5388572
:100AE90038828537837455F0AE37AF387C0E7D3840
:100AF900120494ED4C70057F2E12124F0538E5381B
:100B090070020537C394FFE53794FF40D2E4F53707
:100B1900F538853882853783E0645560231216FEDF
:100B2900753CFF753D05753EFF85373F8538407B30
:100B3900007A00797212005F7B007A007972801A5C
:100B49000538E53870020537C394FFE53794FF404F
:0D0B5900C11216FE7B007A0079251215C727
:010B6600226C
:0916F5007D007BFF7E0012042F32
:0B16FE007F01121709E4F508F509222E
:1011690078727C007D007BFF7A0679B87E007F115A
:1011790012042F78837C007D007BFF7A0679C97E73
:10118900007F1012042F78937C007D007BFF7A0684
:1011990079D97E007F1012042F78A37C007A067912
:1011A900E97F111216F57B007A0079721215C712C0
:1011B90012BD7B007A0079831215C71212BD7B001C
:1011C9007A0079931215C71212BD7B007A0079A3B0
:0311D9000215C735
:1015540078727C007D007BFF7A0679FA7E007F1129
:1015640012042F78837C007A07790B7F0F1216F50B
:101574007B007A0079721215C71212BD7B007A00C3
:0815840079831215C70212BDA4
:1015130078727C007D007BFF7A07791A7E007F1149
:1015230012042F78837C007D007BFF7A07792B7E62
:10153300007F1212042F1216FE7B007A00797212BA
:1015430015C71212BD7B007A0079831215C70212E8
:01155300BDDA
:1010710078727C007D007BFF7A07793D7E007F0ED0
:1010810012042F78807C007D007BFF7A07794B7EEC
:10109100007F0B12042F788B7C007D007BFF7A0789
:1010A10079567E007F0C12042F78977C007D007B9F
:1010B100FF7A0779627E007F0C12042F1216FE7BE5
:1010C100007A0079721215C71212BD7B007A00797D
:1010D100801215C71212BD7B007A00798B1215C7D9
:0C10E1001212BD7B007A0079970215C73F
:1010ED0078727C007D007BFF7A07796E7E007F0928
:1010FD0012042F787B7C007D007BFF7A0779777E49
:10110D00007F0912042F78847C007D007BFF7A0715
:10111D0079807E007F0912042F788D7C007D007B05
:10112D00FF7A0779897E007F0912042F1216FE7B44
:10113D00007A0079721215C71212BD7B007A007900
:10114D007B1215C71212BD7B007A0079841215C768
:0C115D001212BD7B007A00798D0215C7CC
:10092800E4F590D290E590B4110A7FC87E001215C4
:10093800FF7F3122E590B4210A7FC87E001215FF9F
:100948007F3422E590B4410A7FC87E001215FF7FEC
:100958003722E590B4810A7FC87E001215FF7F2AEE
:1009680022C290D291E590B4120A7FC87E00121577
:10097800FF7F3222E590B4220A7FC87E001215FF5D
:100988007F3522E590B4420A7FC87E001215FF7FAA
:100998003822E590B4820A7FC87E001215FF7F30A6
:1009A80022C291D292E590B4140A7FC87E00121533
:1009B800FF7F3322E590B4240A7FC87E001215FF1A
:1009C8007F3622E590B4440A7FC87E001215FF7F67
:1009D8003922E590648470347FC87E001215FFE5E3
:1009E80090B4840A7FC87E001215FF7F2322E59009
:1009F800B4440A7FC87E001215FF7F4622E590B4F2
:100A080024D67FC87E001215FF7F4522C292D2935A
:100A1800E590B4180A7FC87E001215FF7F4122E5D1
:100A280090B4280A7FC87E001215FF7F4222E59005
:100A3800B4480A7FC87E001215FF7F4322E590B4B0
:100A4800880A7FC87E001215FF7F4422C2937F0068
:010A5800227B
:10162600D2B07590181215F91215F4D2B075904211
:101636001215F9D2B07590811215F9D2B075904293
:0E1646001215F91215F4D2B0759018C2B02228
:1014CD00D2B07590011215F9D2B07590021215F9BE
:1014DD00D2B07590041215F9D2B07590081215F9A5
:1014ED00D2B07590101215F9D2B07590201215F971
:1014FD00D2B07590401215F9D2B0759080C2B07F00
:06150D00647E000215FFE0
:1016BE00D2B07590AAC2B07FC87E001215FFD2B00C
:0C16CE00759055C2B07FC87E000215FF69
:10167B00E4F525F526E526F445256018D2B0852638
:10168B00907F0A7E001215FF0526E52670020525C0
:04169B00C2B080E178
:01169F002228
:1016A0007F011217097F061217097F021217097F9F
:0E16B0000F1217097F141217097F3C02170949
:10124F008F3EE50964134508700D7FC012170975AD
:10125F000800750940803CE50964274508700D7F3B
:10126F00D41217097508007509548027E5096453CE
:10127F004508700D7F9412170975080075091480C1
:10128F0012E50964674508700A7F80121709E4F5B3
:10129F0008F509D2B1C2B2853E90D2B37F0A7E0063
:0E12AF001215FFC2B30509E5097002050822F9
:0B15F400D2B0759024C2B07F647E006E
:1015FF00AA06AB07EB1BAE0270011AD39400EE9450
:10160F00004013E4FCFDC3ED946EEC940050E50D27
:06161F00BD00010C80F08B
:0116250022A2
:1011DC00E4F525F5261216FE7BFF7A067922121508
:1011EC00C7AE25AF26E4FCFD7B807A967998F8C3D0
:1011FC001204E9400AE526940AE5259400500D7F77
:10120C00067E00120B678E258F2680D5AF26121214
:10121C004F7FE87E031215FFE5268525F012052584
:10122C00123496800000123C7BFF7A0679398006D6
:10123C007BFF7A0679431215C71215FBAF26AE2534
:03124C0002132763
:10138600E4F525F526F5271216FE7BFF7A06795A2F
:101396001215C7D3E527943CE5269400500BC3E508
:1013A60027940AE5269400500D7F017E00120B67F4
:1013B6008E268F2780DD758902E525642A6019123D
:1013C60009288F25C374FF9527F58CD28C308DFDA7
:0813D600B290C28DC28C80E1CF
:0113DE0022EC
:101327008E278F28E5288527F0120525133B968001
:10133700000013437BFF7A06793980067BFF7A0624
:1013470079721215C71215FBAE27AF287C007D6492
:101357001204828E278F28758901D3E5289400E52A
:101367002794004019758CFF758AF6D28C308DFD55
:0F137700C28CC28DE528152870E0152780DC2276
:03000000020FE507
:0C0FE500787FE4F6D8FD7581B302102C73
:10035F00E709F608DFFA8046E709F208DFFA803E80
:10036F0088828C83E709F0A3DFFA8032E309F6086D
:10037F00DFFA8078E309F208DFFA807088828C83D5
:10038F00E309F0A3DFFA806489828A83E0A3F60889
:10039F00DFFA805889828A83E0A3F208DFFA804C63
:1003AF0080D280FA80C680D4806980F2803380103A
:1003BF0080A680EA809A80A880DA80E280CA8033A3
:1003CF0089828A83ECFAE493A3C8C582C8CCC5831B
:1003DF00CCF0A3C8C582C8CCC583CCDFE9DEE780EB
:1003EF000D89828A83E493A3F608DFF9ECFAA9F06A
:1003FF00EDFB2289828A83ECFAE0A3C8C582C8CCC0
:10040F00C583CCF0A3C8C582C8CCC583CCDFEADED8
:10041F00E880DB89828A83E493A3F208DFF980CC3A
:10042F0088F0EF60010E4E60C388F0ED2402B40433
:10043F000050B9F582EB2402B4040050AF232345DA
:06044F0082239003AF734D
:10045500BB010CE58229F582E5833AF583E022505C
:1004650006E92582F8E622BBFE06E92582F8E222A6
:0D047500E58229F582E5833AF583E49322C0
:10048200EF8DF0A4A8F0CF8CF0A428CE8DF0A42E8E
:02049200FE2248
:10049400BC000BBE0029EF8DF084FFADF022E4CC4C
:1004A400F875F008EF2FFFEE33FEEC33FCEE9DEC15
:1004B400984005FCEE9DFE0FD5F0E9E4CEFD22ED5B
:1004C400F8F5F0EE8420D21CFEADF075F008EF2FA5
:1004D400FFED33FD4007985006D5F0F222C398FD96
:0504E4000FD5F0EA2233
:1004E900EB9FF5F0EA9E42F0E99D42F0EC6480C88A
:0604F90064809845F0222A
:1004FF00D083D082F8E4937012740193700DA3A38C
:10050F0093F8740193F5828883E47374029368609F
:06051F00EFA3A3A380DF9F
:10052500D083D082F8E4937012740193700DA3A365
:1005350093F8740193F5828883E473740293B5F09C
:0D054500067403936860E9A3A3A3A380D804
:10000300E548243CF8E60548227839300702783C75
:10001300E475F00112057D0205522000EB7F2ED21C
:10002300008018EF540F2490D43440D4FF30040BD5
:10003300EF24BFB41A0050032461FFE549600215A1
:1000430049054CE54C7002054B30070D7839E475D2
:10005300F00112057DEF02056B0216547403D207FB
:100063008003E4C207F5488B398A3A893BE4F549B2
:10007300F54BF54CE54960077F2012003E80F5758E
:100083004AFFC201C200C202C203C205C206C208BD
:1000930012000CFF700D3007057F0012004FAF4CAC
:1000A300AE4B22B4255FC2D5C20412000CFF24D08C
:1000B300B40A00501A75F00A784930D50508B6FF1E
:1000C3000106C6A426F620D5047002D20380D924E3
:1000D300CFB41A00EF5004C2E5D20402024FD2019A
:1000E30080C6D20080C0D20280BCD2D580BAD205ED
:1000F30080B47F2012003E2002077401B5490040FE
:10010300F1120003FF12003E020077D208D20680EC
:1001130095120003FB120003FA120003F94A4B7015
:100123000679207A037BFF20022EE549602A7E00B0
:100133008E8275830012045560060EEE654A70F0D8
:10014300C2D5EBC0E0EAC0E0E9C0E0EE120296D00F
:10015300E0F9D0E0FAD0E0FB120552FF60AAEBC051
:10016300E0EAC0E0E9C0E012003ED0E02401F9D0AB
:10017300E03400FAD0E0FBE54A0460DCD54AD980DC
:10018300877BFF7A027992D202809C791080027970
:1001930008C206C2088008D2D5790A8004790AC247
:1001A300D5E54A047002F54AE4FAFDFEFF120003A6
:1001B300FC7B08200113120003FD7B1030000A12A0
:1001C3000003FE120003FF7B20EC3382D592D5504F
:1001D30013C3E43000069FFFE49EFEE42001039D69
:1001E300FDE49CFCE4CBF8C201EC700CCFCECDCC8B
:1001F300E824F8F870F38017C3EF33FFEE33FEED16
:1002030033FDEC33FCEB33FB994002FB0FD8E9EBF6
:10021300300105F8D0E0C448B201C0E00AEC4D4E0D
:100223004F78207B0070C2EAB54A0040BCC0E012A0
:100233000298D0F0D0E0200104C4C0E0C4B201C0F1
:10024300F0120027D0F0D5F0EB0200771204FF0183
:100253001453018E5800E54C00E14201924F019A7C
:0F02630044019A4900FA4301A0550184460184E1
:100272004501844703405000E92D00ED2E01102B6B
:1002820000F123010E2003292A00A94800000108D9
:100292003F3F3F00790AA2D5200314300509B91067
:1002A200020404B9080104A2D52006025001042068
:1002B20002689202B549005034C0E07F2030031931
:1002C2007F30A20272067205500F1202EFC202C202
:1002D20006C205C2087F30800F300503E9C0E01274
:1002E200003E300503D0E0F9D0E0B549CC30051727
:1002F2007F30B9100C12003E7F583004077F78809F
:1003020003B9080312003E3002057F2D02003E7F32
:10031200202008F87F2B2006F322920280CF286E3D
:10032200756C6C2900D2011200033001F8C2017809
:100332004930D50108F60200A92D50434958120050
:10034200032403B405004001E490033B9312002F01
:0D035200743A12002FD20375490402018E87
:100FF100020792E493A3F8E493A34003F68001F27D
:1010010008DFF48029E493A3F85407240CC8C33300
:10101100C4540F4420C8834004F456800146F6DFCF
:10102100E4800B01020408102040809016DAE47E6F
:10103100019360BCA3FF543F30E509541FFEE493C4
:10104100A360010ECF54C025E060A840B8E493A38B
:10105100FAE493A3F8E493A3C8C582C8CAC583CAB6
:10106100F0A3C8C582C8CAC583CADFE9DEE780BE6E
:0116F40000F5
:10055200BB010689828A83E0225002E722BBFE02A7
:09056200E32289828A83E49322DA
:10056B00BB010689828A83F0225002F722BBFE016F
:02057B00F32269
:10057D00FAE6FB0808E6F925F0F618E6CA3AF6227F
:10165400EFB40A07740D12165F740A309811A89932
:10166400B8130CC2983098FDA899C298B811F630F6
:0716740099FDC299F59922CE
:00000001FF
