:100000000C943E000C9450000C9450000C94500042
:100010000C9450000C9450000C9450000C94500020
:100020000C9450000C9450000C9450000C94500010
:100030000C9450000C9450000C9450000C94500000
:100040000C9450000C9450000C9450000C945000F0
:100050000C9450000C9450000C9450000C945000E0
:100060000C9450000C9450000C9450000C945000D0
:100070000C9450000C9450000C94500011241FBE9E
:10008000CFEFD8E0DEBFCDBF21E0A0E0B1E001C0FE
:100090001D92A130B207E1F70E947D010C94AA01E4
:1000A0000C94000085B1867885B92F9A80E18A95F5
:1000B000F1F700C0289A88E08A95F1F700002F98A0
:1000C00085E08A95F1F785B18C6085B987E68A95D8
:1000D000F1F7000008952E9A2D982C9880E882B9A7
:1000E000409A40982B982B9A199BFECF08952E9AF0
:1000F0002D982C9880E182B9409A40982E982D989E
:100100002C9812B8409A40982E982D9A82E182B984
:10011000409A40982C9A2E982D9A80EC82B9409A59
:1001200040982E982D982C9881E082B9409A40985A
:100130002E982D9A82E282B9409A40982C9A2E9855
:100140002D9A83E382B9409A40982E982D982C9A44
:1001500012B8409A40982B982B9A199BFECF2E9A52
:100160002D9812B8409A409808952F9A289886EAB8
:100170008A95F1F700C02F98289A0895519A5098BF
:10018000589A86E08093C2001092C5008CE080935C
:10019000C400E1ECF0E08081886080838081806130
:1001A00080830895E0ECF0E0908195FFFDCF80938F
:1001B000C600E0ECF0E0808186FFFDCFE0ECF0E0EF
:1001C0008081806480830895CF93C82F82958F703B
:1001D0008A3018F08950806401C080630E94D20088
:1001E000CF70CA3020F0C9508C2F806402C08C2F91
:1001F00080630E94D200CF9108952E9A2D982C985A
:1002000088E082B9409A40982E982D982C9812B880
:10021000409A409811B82A982C9883E08A95F1F773
:10022000000080B1809300010E94E4002A9A8FEFC1
:1002300081B92E982D982C9881E082B9409A4098E7
:1002400011B82A982C9883E08A95F1F7000080B1C4
:10025000809300010E94E4002A9A8FEF81B92E98C2
:100260002D982C9882E082B9409A409811B82A982B
:100270002C9883E08A95F1F7000080B1809300010B
:100280000E94E4002A9A8FEF81B908951F93CF93BB
:10029000DF93C0E012E0DFEF2E9A2D982C9812B970
:1002A000409A40982E982D982C9A12B8409A4098CF
:1002B0002E982D982C98C2B9409A409811B82A9837
:1002C0002C9883E08A95F1F7000080B180930001BB
:1002D0000E94E4002C9A83E08A95F1F7000080B137
:1002E000809300010E94E4002A9AD1B9CF5FC13205
:1002F00099F6DF91CF911F9108950E94BE0084B1BD
:100300008D6F84B92198389A40988FEF81B92F98D2
:10031000289A0E9452008DE00E94D2008AE00E943A
:10032000D2000E94FD008DE00E94D2008AE00E946F
:10033000D2000E9446010E946B000E9477008DE06F
:100340000E94D2008AE00E94D2000E9446010E94D0
:08035000B500FFCFF894FFCFC8
:00000001FF
