:10054E005072657373203120666F722052414D20B8
:10055E006F72203220666F7220524F4D7E005265B0
:10056E007475726E696E672E2E2E7E0050726573D4
:10057E0073202A20746F2065646974207468652066
:10058E006E65787420627974657E00466F756E6450
:10059E003A207E00204E6F7420466F756E64217E69
:1005AE00004C6F6164696E6720307841412E2E2EAB
:1005BE007E00426164204D656D6F72793A20253060
:1005CE0034587E004C6F6164696E67203078353523
:1005DE002E2E2E7E00456E7465722044656C6179F8
:1005EE002054696D65287553293A7E00456E7465F1
:1005FE007220576176656C656E67746820284B486B
:10060E007A3A7E0020204B6576696E204A2E204273
:10061E006972647E0028507265737320616E792052
:10062E004B65792E2E2E297E004D656D6F727920C9
:10063E00697320676F6F64217E00312E204C454414
:10064E00207061747465726E737E00322E20467255
:10065E00656520547970696E677E00332E204D6576
:10066E006D6F727920746573747E00342E20476F1F
:10067E0020546F205061676520327E00312E204D50
:10068E00656D6F72792046756E63737E00322E2013
:10069E004D43552054696D6572737E00312E204492
:1006AE00656C6179202874696D65297E00322E2073
:1006BE0047656E657261746520576176657E00319F
:1006CE002E204163636F726469616E7E00322E204C
:1006DE00536C696465727E00332E205368696674AC
:1006EE0065727E00342E20436F756E7465727E00C7
:1006FE00312E2044756D707E00322E204D6F766542
:10070E007E00332E20456469747E00342E204669A7
:04071E006E647E0087
:10156500100F456E74657220416464726573733A39
:0A1575007E0002080000020B0000D7
:10072200E4F522F523F524784D7C00FD7BFF7A0663
:100732007912FE7F1112042F785E7C007D007BFF10
:100742007A0679237E007F1412042FC2B012152B71
:10075200E4F590FB7A00794D1214281210E27B0026
:100762007A00795E121428E50A70071208B88F0A17
:1007720080F57FC87E0080721215A68F0AE50A6492
:10078200317036120F09E50A642360611215A68FD3
:100792000AE50AB4310512148780EBE50AB4320582
:1007A2001212EB80E1E50AB4330512154980D7E550
:1007B2000AB434D212150680CDE50A6432701F7F66
:1007C20001121594E50A6423600D1215A68F0A1210
:1007D200107412145C80ED7F01121594800FE50AEB
:1007E200B4330F1209E97F887E13121460121001CC
:1007F2008086E50A64347080E50A64237003020887
:10080200B21213B51215A68F0AE50A6431706CE5AF
:100812000A642370030208A8120F851215A68F0A14
:10082200E50A643170301215897BFF7A05794E1220
:1008320014281215A68F0AE50AB43105120DE980B3
:1008420031E50AB43205120D5380277BFF7A057910
:100852006C121428801CE50AB4320512124F801261
:10086200E50AB433051211FD8008E50AB434031217
:1008720012A07FF47E011214608094E50A64327043
:1008820025E50A6423601F1213741215A68F0AE568
:100892000AB431051213318008E50AB43203121189
:1008A2004C12145C80DB7FE87E031214600207FAAC
:0608B20012100102077A9A
:0213ED00AE0749
:1013EF00EE54F0FFEE540FF52CEFC4540FFF4307EC
:1013FF0030432C30EFD39439400474072FFFE52C82
:10140F00D3943940067407252CF52C121074AF2C89
:03141F0002107444
:100CA500EE54F0FCEE540FF52C752D00752E00EF6B
:100CB50054F0F52F753000EF540FF531ECC4540F97
:100CC500FD7C00430530E52CF52D752C00432D30BA
:100CD500E52EC4F854F0C868F52EE52FC4540F4826
:100CE500F52F432F30433130D3ED9439EC94004048
:100CF5000774072DFDE433FCD3E52D9439E52C94D9
:100D050000400B7407252DF52DE4352CF52CD3E586
:100D15002F9439E52E9400400B7407252FF52FE409
:100D2500352EF52ED3E5319439E5309400400B741A
:100D3500072531F531E43530F530AF05121074AFC4
:0E0D45002D121074AF2F121074AF3102107403
:1010E2007F0A7E00121460D3E5099413E508648038
:1010F2009480500C7FC01215947508007509402227
:10110200D3E5099427E50864809480500C7FD412BB
:10111200159475080075095422D3E5099453E5081E
:1011220064809480500C7F941215947508007509A0
:101132001422D3E5099467E50864809480500A7FFD
:0A11420080121594E4F508F5092267
:100BD500E4F52EF52FF530F52C752D037F1E7E00DF
:100BE5001214601215A68F30121074E52FC4F85434
:100BF5000FC868F52FE52EC454F048F52EE53012E0
:100C050004ED0C3B300C43310C48320C4D330C5287
:100C1500340C57350C5C360C61370C66380C6B3967
:100C25000C70410C75420C7A430C7F440C84450CC6
:100C3500894600000C8C852E2E852F2F8049432F49
:100C4500018044432F02803F432F03803A432F0402
:100C55008035432F058030432F06802B432F078097
:100C650026432F088021432F09801C432F0A801714
:100C7500432F0B8012432F0C800D432F0D8008430B
:100C85002F0E8003432F0FE52D152D7002152CC354
:0F0C9500E52C648094804003020BE1AE2EAF2F5C
:010CA400222D
:100AF700E4F52AF52BF52C1215A68F2C121074E5A8
:100B07002CD39439403AE52CB44105752C3A803002
:100B1700E52CB44205752C3B8026E52CB4430575BE
:100B27002C3C801CE52CB44405752C3D8012E52C2B
:100B3700B44505752C3E8008E52CB44603752C3F5B
:100B4700E52CC454F0F52C1215A6752A008F2B122C
:100B57001074D3E52B9439E52A94004058E52B64AB
:100B670041452A7007F52A752B3A8049E52B6442DF
:100B7700452A7007F52A752B3B803AE52B644345D8
:100B87002A7007F52A752B3C802BE52B6444452AF0
:100B97007007F52A752B3D801CE52B6445452A70A7
:100BA70007F52A752B3E800DE52B6446452A70050F
:100BB700F52A752B3F532B0F752A00E52B422CAFD7
:0D0BC7002C1210747FF47E01121460AF2C0C
:010BD40022FE
:1015A600E4FFEF700B7F64FE1214601208B880F23D
:0115B6002212
:0411A5008E288F29D8
:1011A900E4F52AF52BF52CD3E5299400E52864808C
:1011B900948040341215A68F2C121074E52CD39408
:1011C9003940051215A68F2CE52C75F00AA4252E99
:1011D900FFE52D35F06528F52DE5296FF52EE52973
:1011E900152970C3152880BF7FF47E01121460AEE3
:0311F9002DAF2EE9
:0111FC0022D0
:10159400C2B1C2B28F90D2B37F0A7E00121460C26D
:0215A400B32270
:061422007B007A00790F47
:061428008B398A3A893B72
:10142E00E4F53CF53DAB39AA3AA93B853D82853CB6
:10143E0083120455FF647E600D121074053DE53D68
:06144E0070E3053C80DFA5
:011454002275
:100DE900E4F525F526121589121422120BD58E2544
:100DF9008F26E4F527F528750A2AE50A6423607326
:100E0900121589C3E5289410E5279400504DE5266D
:100E19002528F52BE5253527F52AE52854037015EE
:100E2900E528452760031210E2AF2BAE2A120CA564
:100E39007F3A121074852B82852A83E0F5291214D2
:100E49005C852B82852A83E0FF1213ED7F20121027
:100E5900740528E52870AC052780A8E5282526F51E
:100E690026E5273525F525E4F527F5281215A68F5A
:030E79000A808765
:010E7C002253
:100D5300E4F525F526121589121422120BD58E25DA
:100D63008F26E4F527F528750A2AE50A64236075BA
:100D7300121589C3E5289410E5279400504FE52602
:100D83002528F52BE5253527F52AE5285403701585
:100D9300E528452760031210E2AF2BAE2A120CA5FB
:100DA3007F3A121074852B82852A83E493F52912E6
:100DB300145C852B82852A83E493FF1213ED7F2035
:100DC3001210740528E52870AA052780A6E52825B2
:100DD30026F526E5273525F525E4F527F52812150B
:050DE300A68F0A8085C7
:010DE80022E8
:10124F00E4F525F526F527F528FFFE12158912146A
:10125F0022120BD58E258F261210E2121422120B9A
:10126F00D58E278F28121589E4FEFFE5262FFDE581
:10127F00253E8D82F583E0FDE5282FFBE5273E8B8C
:10128F0082F583EDF00FBF00010EEF64104E70DB9F
:01129F00222C
:1011FD00E4F525F526121589121422120BD58E272A
:10120D008F28121589750A2AE50A642A7033120A85
:10121D00F78F29121589E5282526FFE52735258F16
:10122D0082F583E529F00526E526700205257BFF6D
:10123D007A05797A1214281215A68F0A121589804B
:01124D00C7D9
:01124E00227D
:1012A000E4F526F527121589120AF78F25C3E527DD
:1012B00094FFE52694FF5024852782852683E0B598
:1012C00025107BFF7A057999121428AF27AE2602E4
:1012D0000CA50527E52770D5052680D1AF2512136B
:0A12E000ED7BFF7A0579A2121428B5
:0112EA0022E1
:1009E90078257C007D007BFF7A0679377E007F11B0
:1009F90012042FE4F5361215897BFF7A0579AF12B7
:100A090014281210E2E4F537F538AE37AF387C0E0A
:100A19007D38120482ED4C70057F2E1210748538D2
:100A29008285378374AAF00538E53870020537C323
:100A390094FFE53794FF40D2E4F537F538853882DD
:100A4900853783E064AA600280630538E53870025F
:100A59000537C394FFE53794FF40E21210E27BFFAC
:100A69007A0579D21214281210E2E4F537F538859F
:100A790038828537837455F0AE37AF387C0E7D38B0
:100A8900120482ED4C70057F2E1210740538E5387A
:100A990070020537C394FFE53794FF40D2E4F53778
:100AA900F538853882853783E064556023121589C6
:100AB900753CFF753D05753EC085373F8538407BE0
:100AC900007A00797212005F7B007A007972801ACD
:100AD9000538E53870020537C394FFE53794FF40C0
:0D0AE900C11215897B007A007925121428AE
:010AF60022DD
:091580007D007BFF7E0012042FA8
:0B1589007F01121594E4F508F509221B
:1010010078727C007D007BFF7A0679487E007F1133
:1010110012042F78837C007D007BFF7A0679597E4C
:10102100007F1012042F78937C007D007BFF7A06ED
:1010310079697E007F1012042F78A37C007A0679EB
:10104100797F111215807B007A00797212142812AF
:1010510010E27B007A0079831214281210E27B00DF
:101061007A0079931214281210E27B007A0079A396
:031071000214283E
:1013B50078727C007D007BFF7A06798A7E007F113A
:1013C50012042F78837C007A06799B7F0F12158093
:1013D5007B007A0079721214281210E27B007A00E1
:0813E50079831214280210E2C2
:1013740078727C007D007BFF7A0679AA7E007F115B
:1013840012042F78837C007D007BFF7A0679BB7E74
:10139400007F1212042F1215897B007A00797212D1
:1013A40014281210E27B007A0079831214280210A8
:0113B400E256
:100F090078727C007D007BFF7A0679CD7E007F0EAA
:100F190012042F78807C007D007BFF7A0679DB7EC6
:100F2900007F0B12042F788B7C007D007BFF7A06F3
:100F390079E67E007F0C12042F78977C007D007B78
:100F4900FF7A0679F27E007F0C12042F1215897B35
:100F5900007A0079721214281210E27B007A007963
:100F6900801214281210E27B007A00798B1214285F
:0C0F79001210E27B007A00799702142825
:100F850078727C007D007BFF7A0679FE7E007F0902
:100F950012042F787B7C007D007BFF7A0779077E22
:100FA500007F0912042F78847C007D007BFF7A077F
:100FB50079107E007F0912042F788D7C007D007BDF
:100FC500FF7A0779197E007F0912042F1215897B94
:100FD500007A0079721214281210E27B007A0079E7
:100FE5007B1214281210E27B007A007984121428EF
:0C0FF5001210E27B007A00798D021428B3
:1008B800E4F590D290E590B4110A7FC87E00121436
:1008C800607F3122E590B4210A7FC87E001214604F
:1008D8007F3422E590B4410A7FC87E001214607FFD
:1008E8003722E590B4810A7FC87E001214607F2AFF
:1008F80022C290D291E590B4120A7FC87E001214E9
:10090800607F3222E590B4220A7FC87E001214600C
:100918007F3522E590B4420A7FC87E001214607FBA
:100928003822E590B4820A7FC87E001214607F30B6
:1009380022C291D292E590B4140A7FC87E001214A4
:10094800607F3322E590B4240A7FC87E00121460C9
:100958007F3622E590B4440A7FC87E001214607F77
:100968003922E590648470347FC87E00121460E5F3
:1009780090B4840A7FC87E001214607F2322E59019
:10098800B4440A7FC87E001214607F4622E590B402
:1009980024D67FC87E001214607F4522C292D2936B
:1009A800E590B4180A7FC87E001214607F4122E5E2
:1009B80090B4280A7FC87E001214607F4222E59016
:1009C800B4480A7FC87E001214607F4322E590B4C1
:1009D800880A7FC87E001214607F4422C2937F0079
:0109E80022EC
:10148700D2B075901812145A121455D2B0759042F2
:1014970012145AD2B075908112145AD2B075904274
:0E14A70012145A121455D2B0759018C2B02209
:1012EB00D2B075900112145AD2B075900212145AE2
:1012FB00D2B075900412145AD2B075900812145AC9
:10130B00D2B075901012145AD2B075902012145A94
:10131B00D2B075904012145AD2B0759080C2B07F83
:06132B00647E0002146064
:10154900D2B07590AAC2B07FC87E00121460D2B022
:0C155900759055C2B07FC87E000214607F
:10150600E4F525F526E526F445256018D2B08526AE
:10151600907F0A7E001214600526E52670020525D6
:04152600C2B080E1EE
:01152A00229E
:10152B007F011215947F061215947F021215947F7A
:0E153B000F1215947F141215947F3C02159424
:101074008F3EE50964134508700D7FC01215947501
:101084000800750940803CE50964274508700D7F18
:10109400D41215947508007509548027E509645322
:1010A4004508700D7F941215947508007509148015
:1010B40012E50964674508700A7F80121594E4F507
:1010C40008F509D2B1C2B2853E90D2B37F0A7E0040
:0E10D400121460C2B30509E509700205082276
:0B145500D2B0759024C2B07F647E000E
:10146000AA06AB07EB1BAE0270011AD39400EE94F0
:10147000004013E4FCFDC3ED946EEC940050E50DC8
:06148000BD00010C80F02C
:011486002243
:10133100E4F525F5261215897BFF7A0579E3121468
:1013410028AE25AF26E4FCFD7B807A967998F8C318
:101351001204D7400AE526940AE5259400500D7F32
:10136100077E001211A58E258F2680D5AF26AE25CA
:031371000214B5AE
:10114C00E4F525F526F5271215897BFF7A0579FA42
:10115C00121428D3E527943CE5269400500BC3E5E4
:10116C0027940AE5269400500D7F027E001211A5EB
:10117C008E268F2780DD758902E525642A60191279
:10118C0008B88F25C374FF9527F58CD28C308DFD54
:08119C00B290C28DC28C80E10B
:0111A4002228
:1014B5007C007D64120482758901D3EF9400EE945B
:1014C500004016758CFF758AF6D28C308DFDC28C66
:0A14D500C28DEF1F70E41E80E122BB
:03000000020E7D70
:0C0E7D00787FE4F6D8FD7581B3020EC446
:10035F00E709F608DFFA8046E709F208DFFA803E80
:10036F0088828C83E709F0A3DFFA8032E309F6086D
:10037F00DFFA8078E309F208DFFA807088828C83D5
:10038F00E309F0A3DFFA806489828A83E0A3F60889
:10039F00DFFA805889828A83E0A3F208DFFA804C63
:1003AF0080D280FA80C680D4806980F2803380103A
:1003BF0080A680EA809A80A880DA80E280CA8033A3
:1003CF0089828A83ECFAE493A3C8C582C8CCC5831B
:1003DF00CCF0A3C8C582C8CCC583CCDFE9DEE780EB
:1003EF000D89828A83E493A3F608DFF9ECFAA9F06A
:1003FF00EDFB2289828A83ECFAE0A3C8C582C8CCC0
:10040F00C583CCF0A3C8C582C8CCC583CCDFEADED8
:10041F00E880DB89828A83E493A3F208DFF980CC3A
:10042F0088F0EF60010E4E60C388F0ED2402B40433
:10043F000050B9F582EB2402B4040050AF232345DA
:06044F0082239003AF734D
:10045500BB010CE58229F582E5833AF583E022505C
:1004650006E92582F8E622BBFE06E92582F8E222A6
:0D047500E58229F582E5833AF583E49322C0
:10048200BC000BBE0029EF8DF084FFADF022E4CC5E
:10049200F875F008EF2FFFEE33FEEC33FCEE9DEC27
:1004A200984005FCEE9DFE0FD5F0E9E4CEFD22ED6D
:1004B200F8F5F0EE8420D21CFEADF075F008EF2FB7
:1004C200FFED33FD4007985006D5F0F222C398FDA8
:0504D2000FD5F0EA2245
:1004D700EB9FF5F0EA9E42F0E99D42F0EC6480C89C
:0604E70064809845F0223C
:1004ED00D083D082F8E4937012740193700DA3A39E
:1004FD0093F8740193F5828883E4737402936860B2
:06050D00EFA3A3A380DFB1
:10000300E548243CF8E60548227839300702783C75
:10001300E475F00112053E0205132000EB7F2ED29A
:10002300008018EF540F2490D43440D4FF30040BD5
:10003300EF24BFB41A0050032461FFE549600215A1
:1000430049054CE54C7002054B30070D7839E475D2
:10005300F00112053EEF02052C0214DF7403D207F0
:100063008003E4C207F5488B398A3A893BE4F549B2
:10007300F54BF54CE54960077F2012003E80F5758E
:100083004AFFC201C200C202C203C205C206C208BD
:1000930012000CFF700D3007057F0012004FAF4CAC
:1000A300AE4B22B4255FC2D5C20412000CFF24D08C
:1000B300B40A00501A75F00A784930D50508B6FF1E
:1000C3000106C6A426F620D5047002D20380D924E3
:1000D300CFB41A00EF5004C2E5D20402024FD2019A
:1000E30080C6D20080C0D20280BCD2D580BAD205ED
:1000F30080B47F2012003E2002077401B5490040FE
:10010300F1120003FF12003E020077D208D20680EC
:1001130095120003FB120003FA120003F94A4B7015
:100123000679207A037BFF20022EE549602A7E00B0
:100133008E8275830012045560060EEE654A70F0D8
:10014300C2D5EBC0E0EAC0E0E9C0E0EE120296D00F
:10015300E0F9D0E0FAD0E0FB120513FF60AAEBC090
:10016300E0EAC0E0E9C0E012003ED0E02401F9D0AB
:10017300E03400FAD0E0FBE54A0460DCD54AD980DC
:10018300877BFF7A027992D202809C791080027970
:1001930008C206C2088008D2D5790A8004790AC247
:1001A300D5E54A047002F54AE4FAFDFEFF120003A6
:1001B300FC7B08200113120003FD7B1030000A12A0
:1001C3000003FE120003FF7B20EC3382D592D5504F
:1001D30013C3E43000069FFFE49EFEE42001039D69
:1001E300FDE49CFCE4CBF8C201EC700CCFCECDCC8B
:1001F300E824F8F870F38017C3EF33FFEE33FEED16
:1002030033FDEC33FCEB33FB994002FB0FD8E9EBF6
:10021300300105F8D0E0C448B201C0E00AEC4D4E0D
:100223004F78207B0070C2EAB54A0040BCC0E012A0
:100233000298D0F0D0E0200104C4C0E0C4B201C0F1
:10024300F0120027D0F0D5F0EB0200771204ED0195
:100253001453018E5800E54C00E14201924F019A7C
:0F02630044019A4900FA4301A0550184460184E1
:100272004501844703405000E92D00ED2E01102B6B
:1002820000F123010E2003292A00A94800000108D9
:100292003F3F3F00790AA2D5200314300509B91067
:1002A200020404B9080104A2D52006025001042068
:1002B20002689202B549005034C0E07F2030031931
:1002C2007F30A20272067205500F1202EFC202C202
:1002D20006C205C2087F30800F300503E9C0E01274
:1002E200003E300503D0E0F9D0E0B549CC30051727
:1002F2007F30B9100C12003E7F583004077F78809F
:1003020003B9080312003E3002057F2D02003E7F32
:10031200202008F87F2B2006F322920280CF286E3D
:10032200756C6C2900D2011200033001F8C2017809
:100332004930D50108F60200A92D50434958120050
:10034200032403B405004001E490033B9312002F01
:0D035200743A12002FD20375490402018E87
:100E8900020722E493A3F8E493A34003F68001F256
:100E990008DFF48029E493A3F85407240CC8C3336A
:100EA900C4540F4420C8834004F456800146F6DF39
:100EB900E4800B0102040810204080901565E47E4F
:100EC900019360BCA3FF543F30E509541FFEE4932E
:100ED900A360010ECF54C025E060A840B8E493A3F5
:100EE900FAE493A3F8E493A3C8C582C8CAC583CA20
:100EF900F0A3C8C582C8CAC583CADFE9DEE780BED8
:01157F00006B
:10051300BB010689828A83E0225002E722BBFE02E6
:09052300E32289828A83E4932219
:10052C00BB010689828A83F0225002F722BBFE01AE
:02053C00F322A8
:10053E00FAE6FB0808E6F925F0F618E6CA3AF622BE
:1014DF00EFB40A07740D1214EA740A309811A89920
:1014EF00B8130CC2983098FDA899C298B811F6306D
:0714FF0099FDC299F5992245
:00000001FF
